:020000040800F2
:10000000308A00209D01000825440008F13E0008C8
:100010001D430008F90C0008F55B00080000000013
:10002000000000000000000000000000FD4B000880
:10003000AD0F000800000000B54400084D4D000859
:10004000B7010008B7010008B7010008B7010008B0
:10005000B7010008B701000879110008B7010008CE
:10006000B7010008B7010008B7010008650F0008D4
:10007000710F0008B70100087D0F0008B7010008E4
:10008000B7010008B7010008B7010008B701000870
:10009000B7010008B7010008B7010008B701000860
:1000A000B7010008B7010008B7010008B701000850
:1000B000054F0008114F0008B7010008B7010008FC
:1000C000B7010008B7010008B7010008B701000830
:1000D000B701000811570008B7010008B55800081B
:1000E000B7010008B7010008B7010008B701000810
:1000F000B7010008B7010008CD4F0008890F0008BC
:10010000B7010008B7010008B7010008B7010008EF
:10011000B701000851520008B7010008C14F00089C
:10012000B7010008B7010008950F0008B7010008E3
:10013000B7010008B10F0008B7010008B7010008B7
:10014000B7010008B7010008B7010008B7010008AF
:10015000B7010008B7010008A10F0008B7010008A7
:10016000B7010008B7010008B7010008B70100088F
:10017000B7010008B7010008B7010008000000003F
:10018000B7010008B7010008DFF80CD000F0D0FB81
:100190000048004753B40008308A002006488047D2
:1001A00006480047FEE7FEE7FEE7FEE7FEE7FEE75C
:1001B000FEE7FEE7FEE7FEE7ED4D000889010008D7
:1001C0002DE9F05F0546002092469B46884606468C
:1001D000814640241BE0284641464746224600F01F
:1001E000DAF953465A46C01A914110D311461846BF
:1001F000224600F0C1F92D1A67EB01084F4622464E
:100200000120002100F0B8F917EB00094E41201E33
:10021000A4F10104DFDC484631462A464346BDE8E6
:10022000F09F00000649074A0868504343F239022C
:10023000104408604008704701490860704700009A
:100240007C0500206D4EC64110B5431A934209D279
:100250008318881803E010F8011D03F8011D521ED1
:10026000F9D210BD40EA01039B0703D009E008C999
:10027000121F08C0042AFAD203E011F8013B00F86B
:10028000013B521EF9D210BDD2B201E000F8012BA1
:10029000491EFBD270470022F6E710B513460A4606
:1002A00004461946FFF7F0FF204610BD421C10F827
:1002B000011B0029FBD1801A704730B5044600208D
:1002C000034600E05B1C934203D2E05CCD5C401B24
:1002D000F8D030BD2DE9FE4F81EA030404F000445C
:1002E00021F0004100944FF0000B23F0004350EA4E
:1002F00001045ED052EA03045BD0C3F30A54C1F395
:100300000A552C44A4F2F3340194A0FB0254C1F327
:10031000130141F48011C3F3130343F4801301FB71
:10032000024400FB034E840A970A44EA815447EAD8
:100330008357A4FB076802958D0A05FB07854FEAE2
:10034000932C04FB0C542705029D4FEA065847EAFC
:100350001637B5EB08056EEB070C870E920E47EAD1
:10036000811742EA8312A7FB0201B6EB0B0164EB93
:1003700000042B0D43EA0C335E1844EB1C50DA46A4
:100380005146E7FB0201C5F313044FEA0B3343EA7E
:1003900014534FEA0432019C43EA0603A4F10C040F
:1003A0000294009CCDE900B400F04BF903B0BDE825
:1003B000F08F00200146F9E72DE9F04D81EA0304B2
:1003C00004F0004B21F0004514464FF0000A23F0E2
:1003D000004150EA050220D054EA01021DD0C5F3C5
:1003E0000A570246C5F31303C1F31300C1F30A56BB
:1003F00040F4801543F48013A7EB0608101BD64683
:1004000008F2FD3873EB050002D308F1010801E0A2
:1004100092185B41B8F1000F03DA00200146BDE8F5
:10042000F08D00204FF48011064684460EE0171B25
:1004300073EB050705D3121B63EB050306434CEA78
:10044000010C49084FEA300092185B4150EA01075D
:10045000EDD152EA030012D082EA040083EA0501DA
:10046000084305D0101BAB4106D20122002306E051
:1004700000224FF0004302E06FF0010253101AEB2C
:1004800006004CEB085110EB0A0041EB0B01BDE8F4
:10049000F04D00F0C7B80EB540F233410291002193
:1004A000CDE900110A460B4600F0CBF803B000BDC1
:1004B00070B5C1F30A5201F000450024C1F31301E5
:1004C00040F2FF3341F480119A4201DA002070BDFE
:1004D00040F233439A42A2F2334203DC524200F02C
:1004E0005AF800E090402C43F1D0404270BD00F03B
:1004F000004230F000400AD0C10D01F56071C0F338
:10050000160042EA0151C20840071143704700201B
:100510000146704701F0004330B421F0004150EA39
:10052000010206D00A0DA2F56072C1F31301002A80
:1005300002DC30BC00207047440F44EAC104C10013
:10054000E01830BC00EBC25000F035B830B50B46B7
:10055000014600202022012409E021FA02F59D42F3
:1005600005D303FA02F5491B04FA02F52844151EC7
:10057000A2F10102F1DC30BD202A04DB203A00FAAE
:1005800002F1002070479140C2F1200320FA03F3EA
:10059000194390407047202A04DB203A21FA02F0E8
:1005A0000021704721FA02F3D040C2F120029140AD
:1005B0000843194670470029A8BF7047401C4900EE
:1005C00008BF20F00100704710B4B0FA80FC00FAB8
:1005D0000CF050EA010404BF10BC704749B1CCF1E3
:1005E000200421FA04F411FA0CF118BF012121436F
:1005F0000843A3EB0C01CB1D4FEA00614FEA10202A
:1006000042BF002010BC704700EBC35010440029CB
:10061000A4BF10BC7047401C490008BF20F0010077
:1006200010BC704710B5141E73F1000408DA401CAA
:1006300041F1000192185B411A4301D120F0010001
:1006400010BD2DE9F04D92469B4611B1B1FA81F2F1
:1006500002E0B0FA80F220329046FFF78DFF0446A8
:100660000F4640EA0A0041EA0B0153465A46084346
:1006700013D0114653EA010019D0C8F14002504688
:10068000FFF789FF05460E46504659464246FFF79A
:1006900073FF084305D0012004E020463946BDE839
:1006A000F08D0020054346EAE0762C4337430A9854
:1006B0006305E40AA0EB08000022FD0A44EA47545F
:1006C0000A3002D500200146E9E701051019694109
:1006D000DDE9084500196941BDE8F04DA2E72DE9C3
:1006E000FE4F804681EA0300C00F0C46009021F0C7
:1006F000004123F00045B8EB0200A94105D2404675
:10070000214690461C460B46024623F0004010430B
:1007100047D0270DC7F30A00C3F30A510290401ACD
:10072000019040286BDAC3F3130040F4801B00985B
:10073000924620B10023D2EB030A63EB0B0B019826
:100740005946C0F140025046FFF716FF06460D46D7
:1007500050465946019A00F0FDF810EB080061413F
:10076000002487EA115284EAE7731A4340D0009AC2
:1007700062B3019A012A4FEA075215DC001B61EBB4
:1007800002014FF0004202EA0752CDE90042001C8C
:1007900041F5801132462B46FFF753FF03B0BDE809
:1007A000F08F40462146F9E7001B61EB0201001C77
:1007B00041F5801300185B412018A2F5001747EBA4
:1007C000030140EAD570B6196D4111E06D084FEA9A
:1007D000360645EAC0754FEA0752001B61EB02017D
:1007E000001C41F5801149084FEA300000195141C1
:1007F00032462B4603B0BDE8F04FFFF713BF009819
:10080000012240000023D0EB020263EBE07300986A
:1008100021464FEAE074B8EB000061EB0401E9E720
:1008200083F000435BE781F0004158E72DE9F04D8C
:1008300000231A461B1A8A4103DB00200146BDE84B
:10084000F08DC1F30A52C1F3130141F480154FF04A
:10085000000BD10702D100186D41521E002704463B
:1008600040F2FF11384601EB620A3E4680460246DE
:1008700000204FF48011FFF78EFEC2197141BB18A2
:1008800046EB0100B4EB030C75EB000C04D3E41A47
:1008900065EB000517460E46241908F101006D416D
:1008A00080463428E3DDF91946EB0600091BA84110
:1008B00003D24FF0FF32134601E0002213461BEB38
:1008C000070046EB0A51BDE8F04DFFF7ABBEC1F3A0
:1008D0000A52C1F3130140F2FF3341F480119A42EE
:1008E00002DA00200146704740F233439A42A2F2F6
:1008F000334202DC5242FFF74EBEFFF73DBE00001E
:1009000030B5041E71F1000404DB4FF00044404296
:1009100064EB0101141E73F1000405DB1C464FF06B
:100920000043524263EB0403994208BF904230BD3A
:10093000064C074D06E0E06840F0010394E807002C
:1009400098471034AC42F6D3FFF722FCAC430108C1
:10095000CC430108202A06DBCB17203A41FA02F0EB
:1009600043EAE07306E041FA02F3D040C2F120020C
:10097000914008431946704770B58C1810F8015B18
:1009800015F0070301D110F8013B2A1106D110F828
:10099000012B03E010F8016B01F8016B5B1EF9D12C
:1009A0002B0705D40023521E0DD401F8013BFAE7B2
:1009B00010F8013BCB1A921C03E013F8015B01F81D
:1009C000015B521EF9D5A142D8D3002070BD0000B2
:1009D0002DE9F041734F8CB04FF47A71384604F032
:1009E0000DFA714D532140F2E7322868002440F09F
:1009F000010028602868029400F001000394049428
:100A000005940694CDE9074068482B0680260360CC
:100A1000C0E901148661C0E9032402F06DF900B158
:100A2000FEE74FF48050029002A9604802F023FADA
:100A300000B1FEE72020CDE9060406A95B4802F0DC
:100A400010F900B1FEE7002201211C2001F054FD45
:100A50001C2001F041FD554802F0CDF9472140F23C
:100A6000F31004F05BFA28684FF4EF62472140F07E
:100A70000400286028684E4B00F00400CDE909040A
:100A80000B944C48009401940294039404940594AC
:100A90000694C0E9024104618461C0E9003202F0B9
:100AA000BDFD00B1FEE70A940AA942480B9402F08A
:100AB000D8F800B1FEE7602000901820CDE90104CD
:100AC000082269463B48049402F082FC00B1FEE72C
:100AD0000821384802F0D2FD364802F03BFB286876
:100AE0004FF0C80840F0100028602868029400F019
:100AF00010000394CDE9094009A904A801F0EEFD16
:100B0000079898B101F010FE5FEA4000B0FBF7F0E3
:100B1000411E2A48284A8460C0E90021B7FBF8F149
:100B20008661C16002F0E8F818B1FEE701F0FCFD53
:100B3000ECE7029402A92148039402F092F800B174
:100B4000FEE71E4802F057F92868532140F2E732C9
:100B500040F0200028602868009400F020000490F5
:100B600018480194164B8661C0E90031C0E9024281
:100B700002F0C2F800B1FEE7009469461148019402
:100B800002F06FF800B1FEE700220521372001F0E6
:100B9000B3FC372001F0A0FC0A4802F02CF90CB09D
:100BA000BDE8F08140420F0040380240044E002072
:100BB00000080040944E002000100040DC4E002051
:100BC00000140040244F00200149086070470000D5
:100BD000F40200200149C86070470000F4020020C0
:100BE0000849002802BFC86880B27047012808BFC2
:100BF000086A04D002280EBF486B0020704780B2FC
:100C000070470000103E002070B50025214C0B46B7
:100C10002E4620B1012816D0022827D038E0E068FF
:100C2000002835D0E06890429ABFE06885B215464A
:100C3000A1682A461846FFF707FBE168A068FFF79E
:100C40002AFBE66024E0206A10B3206A90429ABF33
:100C5000206A85B21546E1692A461846FFF7F4FA7C
:100C6000216AE069FFF717FB266211E0606B78B13B
:100C7000606B90429ABF606B85B21546216B2A4625
:100C80001846FFF7E1FA616B206BFFF704FB666320
:100C9000284670BD103E002038B1012808D0022837
:100CA00018BF7047084604F0DBBE084604F036BDA6
:100CB000084604F005BE000010B5002420B101284C
:100CC00007D002280AD00EE0084803F0C7F804460F
:100CD00009E0074803F0C2F8044604E04FF47A73D1
:100CE000044803F009F8204610BD00004C3E0020E7
:100CF000903E0020D43E0020FEE7000070B505467F
:100D000001F04CFB074C6168401AB0F5FA7F38BF20
:100D100070BD01F043FB60602846BDE8704000F004
:100D200003B80000040300202DE9F0414B4C0546B8
:100D300086B020780227012810D04FF00008022842
:100D400016D005281CBF06B0BDE8F081284607F084
:100D500073FB84F8008006B0BDE8F0812770284658
:100D600007F064FA3EA005F093F806B0BDE8F08104
:100D7000217845A005F08CF8284607F05FFB002895
:100D800045D003202070444C6E68424684F80380AE
:100D900084F8028084F801802770394613463FA00A
:100DA000CDF8008005F074F8300E6072C6F307438A
:100DB0002372C6F30722E271F1B2A171009040A044
:100DC00005F066F8A8684FEA106CC0F3074384F892
:100DD0000DC0C0F307222373C1B2E272A17240A01A
:100DE000CDF800C005F054F8E8684FEA106CC0F385
:100DF000074384F811C0C0F307222374C1B2E27321
:100E0000A17340A0CDF800C005F042F820E0686A68
:100E1000807904289CBF06B0BDE8F08104202070D2
:100E2000284607F009FB404868604048A8604048F1
:100E3000E860281D0AF094F802463EA101A805F0DA
:100E400037F83DA005F024F801A940A005F020F8EE
:100E500004F0DCFE06B0BDE8F081000004030020D1
:100E6000202053746174653A204C6F6F6B696E6714
:100E700020666F7220444843502073657276657215
:100E8000202E2E2E0A000000444843505F737461E8
:100E900074653D25640A0000784F0020204D4143D1
:100EA0002020B5D8D6B73A2020202020202020208E
:100EB00025642025642025642025640A00000000A4
:100EC0002044484350204745542049503A20202090
:100ED00020202025642025642025642025640A0024
:100EE00020444843502047455420D7D3CDF8D1DA89
:100EF000C2EB3A2025642025642025642025640A5D
:100F00000000000020444843502047455420C4AC12
:100F1000C8CFCDF8B9D83A202564202564202564AF
:100F20002025640A00000000C0A8464FFFFFFE0015
:100F3000C0A846FE25730000444843502054696D04
:100F4000656F7574202121200A00000053746174BC
:100F5000696320495020616464726573733A202587
:100F6000730A0000014800F0D5B900009840002045
:100F7000014800F0CFB90000D83F0020014800F040
:100F8000C9B9000038400020014800F0C3B9000092
:100F9000F8400020014800F0BDB90000183F0020D3
:100FA000014800F0B7B90000783F0020704700000A
:100FB00010B50AF015FA05484FF48031006800F5C5
:100FC000805041614021416110BD00008C4F0020E4
:100FD0002DE9F041044621B14FF40060E060C0000B
:100FE000A060E069002500280CBF4FF4806028460F
:100FF0004026226811683A4B0B40D4E9021C41EAB2
:101000000C01084340F40070184310602068076822
:10101000012000F065FB20680760206846602068BA
:101020004668012000F05CFB20684660206885600F
:101030002068C560206881694FF64172114041F017
:101040008001816120688669012000F049FB2068E9
:1010500086612068C5612068C569012000F040FBF9
:101060002068C561206800F5805081691D4A1140E3
:1010700041F0040141F008718161206800F5805061
:101080008569012000F02CFB206800F58050856107
:101090002068154900F580500160206800F58050F7
:1010A0000568012000F01CFB206800F580500560F9
:1010B000A069012808D1206800F58050C16941F07D
:1010C000400141F48031C1616069084982880A6445
:1010D0000278D0F8010042EA00204864BDE8F081BF
:1010E0000F8120FF233FDEF88020C10200800240F4
:1010F00008B50020009001216A461E4800F07AFEE3
:1011000001216A461B4800F075FE009810F0040F9C
:1011100004BF012008BD00216A46164800F06AFE9F
:10112000009810F4805F13D01F216A46114800F028
:1011300061FE009810F4805F04BF062008BD00F037
:101140001C00182812D0082809D014280CD00FE051
:101150004FF40451814309D010F4005F01D0032003
:1011600008BD10F4807F03D0042008BD022008BD14
:10117000052008BD8C4F0020012000F0F9BF0000C1
:1011800010B41E4BDFF878C0002000BF53F82010C9
:101190000CEB80020C0C401C1482C0B25182082857
:1011A000F4D3BCF8700002281CBF10BC70474FF08D
:1011B000000C1448A0F870C013480068134B0F4986
:1011C0001A7841F822001A78082A22BF83F800C052
:1011D00010BC704701EB820C5CF8044C84468442DE
:1011E00006D1002A1CBF521E1A70D2B241F822C08A
:1011F0001878401C187010BC70470000A83C0020F4
:10120000903D002094810020E8020020E0000020B2
:1012100072B6FEE770B5054601F0C0F8064CA1684D
:10122000401A642838BF70BD01F0B8F8A0602846A5
:10123000BDE8704008F0A8BB04030020014801F09D
:10124000E6B800006C4F00202DE9F0410446876DA0
:1012500001F0A4F8054694F835000026022806D0CF
:101260008020606584F834600120BDE8F08120684A
:10127000016821F0160101602068416921F08001B8
:101280004161206C002804BFA06C002804D02068B5
:10129000016821F0080101602068016821F0010166
:1012A00001602068006810F0010F12D001F076F89C
:1012B000401B052808D920206065032084F83500EC
:1012C00084F83460BDE8F0812068006810F0010FF8
:1012D000ECD194F85C003F2101FA00F0B8600120E5
:1012E00084F8350084F834600020BDE8F08190F87F
:1012F0003510022903D08021416501207047052166
:1013000080F835100068016821F0010101600020BB
:10131000704700002DE9F843044600270097734802
:101320004FF41651A56D0068B0FBF1F92E6894F8E2
:101330005C00082101FA00F0304211D020680268F8
:1013400012F0040F0CD0026822F00402026094F83C
:101350005C0001FA00F0A860606D40F0010060657B
:1013600094F85C004FF0010808FA00F0304209D010
:101370002168496911F0800F04D0A860606D40F0C9
:101380000200606594F85C1004208840304209D067
:101390002168096811F0020F04D0A860606D40F068
:1013A0000400606594F85C1010208840304220D022
:1013B0002168096811F0080F1BD0A8602068016837
:1013C00011F4802F09D0006810F4002F02D0A16C16
:1013D00079B10CE0216C51B90BE0016811F4807F08
:1013E00003D1016821F008010160216C09B1204698
:1013F000884794F85C102020884030424AD0216809
:10140000096811F0100F45D0A86094F83500052840
:101410002068016809D011F4802F2BD0006810F4E7
:10142000002F24D0E16B21B332E021F016010160DE
:101430002068416921F080014161206C002804BFCF
:10144000A06C002804D02068016821F00801016028
:1014500094F85C004FF03F0101FA00F0A86084F8B6
:10146000358084F83470216DD1BBBDE8F883616CA0
:1014700071B90FE0016811F4807F07D1016821F094
:101480001001016084F8358084F83470E16B09B193
:1014900020468847606D002808BFBDE8F883606D6E
:1014A00010F0010F17D04FF0050084F835002068C8
:1014B000016821F001010160009800F10100009035
:1014C000484504D82068006810F0010FF4D184F872
:1014D000358084F83470E16C002908BFBDE8F883DA
:1014E000204601B0BDE8F043084700000C00002092
:1014F00070B5044600F052FF0646002C04BF0120E0
:1015000070BD022084F83500002584F8345020682E
:10151000016821F0010101602068006810F0010FEE
:1015200010D000BF00F03AFF801B052805D920200D
:101530006065032084F8350070BD2068006810F0F5
:10154000010FEFD1216808683D4A1040D4E901231A
:101550001A43D4E9033C43EA0C031A4363691A4370
:10156000A3691A43E3691A43236A1A431043626A60
:10157000042A03D1D4E90B231A4310430860D4F89A
:1015800000C0DCF81400012320F00701606A40EA83
:101590000102042837D1A16AE06A0A4318B3A66998
:1015A00056B1B6F5005F14D000291CBF01290229ED
:1015B00021D003291CD026E019B1012905D0022928
:1015C00021D110F0807F1ED015E0B0F1C07F1AD17C
:1015D00011E081B1012907D002290CD0032908BFED
:1015E000B0F1C07F07D00EE010F0807F03D10AE099
:1015F00010F0807F07D04FF04000606584F83530F0
:101600004FF0010070BDCCF8142020680D4AC1B223
:10161000A1F11001A2FB01210B4A4FEA111103298C
:10162000525CE2656FF3090088BF001D3F219140C5
:10163000A0658160656584F83530002070BD0000CC
:101640003F8010F0ABAAAAAAF440010870B490F849
:101650003450846D4FF0000C012D02BF022070BC8D
:101660007047012580F8345090F835600025012E30
:101670001CBF80F834504FF0020C02D070BC6046A2
:101680007047022680F83560456505682E6826F4A7
:1016900080262E6005686B608368402B036803BF5B
:1016A0009A600268D16099601CBF0168CA6090F8B6
:1016B0005C103F2202FA01F1A16001680A6842F061
:1016C00016020A60016C21B101680A6842F0080242
:1016D0000A600068016841F001010160CEE7000086
:1016E00070B5044600F05AFE0546B4F1FF3F02D043
:1016F00004480078044400F051FE401BA042FAD395
:1017000070BD0000000000202DE9F041054690F872
:1017100045000C46012804BF0220BDE8F0810126E7
:1017200085F84560022085F844002868002C01688F
:101730006AD0404A1140D4E900231A43D4E9023C5C
:1017400043EA0C031A43AB681A4323691A436369DB
:101750001A43EB681A43A3691A43E3691A43236ADD
:101760001A43636A1A43A36A1A4311430160286843
:1017700007680120FFF7B4FF28680760D4E90B0170
:101780000843D4E90D1211430843E16B0843216C6F
:101790000843616C0843A16C0843296848602868C5
:1017A00047680120FFF79CFF286847602968E06CC4
:1017B00088602968206DC860286881694FF6417289
:1017C0001140D4E916231A43B4F854C0236E43EAF7
:1017D0000C431A43636E1A43A36E1A43114381618B
:1017E000286887690120FFF77BFF28688761D4E9B3
:1017F0001B0108432968C8612868C4690120FFF7F4
:101800006FFF2868C4610DE0D5E9022321F49041FF
:101810001A4311430160286804680120FFF760FF44
:101820002868046085F84460002085F84500BDE81C
:10183000F08100000F8120FF2DE9F00390F845C0F2
:101840000024BCF1010F02BF0220BDE8F003704785
:10185000012780F845704FF0020C80F844C0816287
:10186000002B1CD94FF0004844F2F456A3F10105B7
:1018700001EB441CCCF80080C4EBC41909EB490906
:1018800002EB8909CCE90169AC423ABF0CF12009AD
:10189000CCF80C90CCF80C10641C9C42E8D3026885
:1018A00002F58052D16080F84470002180F8451024
:1018B000BDE8F003084670472DE9F00390F845C0F5
:1018C0000024BCF1010F02BF0220BDE8F003704705
:1018D000012780F845704FF0020C80F844C0C162C7
:1018E000002B84BF4FF480165D1E21D901EB441CF0
:1018F000CCF80060C4EBC41808EB480802EB880879
:10190000CCF80880D0F81C80B8F1000F05D1DCF8C5
:10191000008048F44009CCF80090AC423ABF0CF18A
:101920002008CCF80C80CCF80C10641C9C42DDD351
:10193000026802F58052116180F84470002180F83D
:101940004510BDE8F0030846704790F845100022A6
:10195000012904BF0220704710B44FF0010C80F839
:1019600045C0022180F8441000242DE00B68521C71
:1019700003F44073B3F5007F1BD00B6813F4407F72
:101980001DD04163826B521C8263012A08BF016330
:101990000A68C2F30D42121FC263026B92680264AE
:1019A000C968816280F844C080F8454010BC0020BE
:1019B0007047C0F838C00163C968816204E0836B76
:1019C0005B1C8363C9688162816A0B6813F0004FF6
:1019D00001D1042ACAD380F844C080F8454010BC25
:1019E000012070472DE9F04F85B04FF0000504004D
:1019F000029502BF012005B0BDE8F08F94F84400C5
:101A000020B984F84550204600F064F9A7480168E1
:101A100041F480410160006800F480400090A448D7
:101A2000016821F4000101600168226A114301602C
:101A3000206800F58050016841F00101016000F06C
:101A4000ADFC0646206800F58050006810F0010FDC
:101A500015D000BF00F0A2FC801BB0F5FA7F07D9BB
:101A6000032084F8440084F8455005B0BDE8F08FA9
:101A7000206800F58050006810F0010FEAD120685E
:101A8000006920F01C0600F049FE8A498A4A014498
:101A9000914238BF46F0080615D38849884A014468
:101AA000914238BF46F00C060DD38649864A014460
:101AB000914208D3854908448549884234BF46F09D
:101AC000040646F01006206806614FF4004200212B
:101AD000204600F0E5FA012600287DD1FF20FFF71F
:101AE000FFFD6068002878D000F058FC81464FF078
:101AF000820B4FF4784A41F2883700BF94F84400D3
:101B000082282CD084F844B020680169228A01F030
:101B10001C010AEAC222114321F0020141F04108EE
:101B2000C0F8108000F03AFC054618F0010F10D004
:101B300000F034FC401BB0F5803F05D384F84460CE
:101B4000002084F845000AE02068006910F0010FC9
:101B5000EED12068406980B2029084F8446000F0C1
:101B60001DFCA0EB0900B84209D901212046FFF76E
:101B70002FFA84F84460002084F8450052E002986F
:101B800010F0040FBAD04FF480520021204600F02C
:101B900087FA002871D100F001FC80464FF0000B5D
:101BA00094F8440082282FD0822084F844002068D2
:101BB0000169228A01F01C010AEAC222114321F0C4
:101BC000020141F04109C0F8109000F0E7FB054622
:101BD00019F0010F12D001E04FE043E000F0DEFB0E
:101BE000401BB0F5803F04D384F8446084F845B0CE
:101BF0000AE02068006910F0010FECD1206840690C
:101C000080B2029084F8446000F0C8FBA0EB0800AA
:101C1000B8420BD901212046FFF7DAF984F8446075
:101C200084F845B005B00320BDE8F08F029810F0AD
:101C3000200FB5D002AA1021204600F0DBF8E0B951
:101C4000029810F0040F1ABF4FF40061E160C4F86D
:101C50000CB010F0020F12BFC4F808B04FF480406F
:101C6000A06018E0E068A168C00840EA510082B2B4
:101C70000021204600F014FA48B101212046FFF768
:101C8000A7F984F8446005B00120BDE8F08F40F664
:101C9000FF70FFF725FD00212046FFF799F984F832
:101CA000446005B00020BDE8F08F000044380240D9
:101CB0000438014000D3CEFEC0E1E40040F1E9FD6C
:101CC00040787D0100796CFC005A6202001F0AFA1C
:101CD00080F0FA02F0B587B00024009401940294D9
:101CE000039404940068A0F18041B1F520311CBF39
:101CF00007B0F0BD3A48016841F000710160016829
:101D000001F000710591016841F080610160016896
:101D100001F080610591016841F000610160016896
:101D200001F000610591016841F004010160016862
:101D300001F004010591016841F0010101600168B1
:101D400001F001010591016841F0020101600168A3
:101D500001F002010591016841F040010160006855
:101D6000204E00F04000059001220421304600F092
:101D700010FB042000900120CDE901040225CDE9EB
:101D800003546946304600F0FFF932200326CDE9BE
:101D90000005CDE902460B2769460497124800F07A
:101DA000F3F98620CDE90005CDE90246694604979E
:101DB0000E4800F0E9F94FF4D040CDE90005CDE937
:101DC0000246694604970A4800F0DEF90022012124
:101DD0003D2000F091FB3D2000F07EFB07B0F0BD00
:101DE0003038024000040240000802400000024077
:101DF000001802402DE9F041044690F844001646D0
:101E0000822804BF0220BDE8F081822084F84400CB
:101E100020680269238A4FF4784C02F01C020CEA15
:101E2000C3231A434FF4F86303EA8111114321F0ED
:101E3000020141F00107076100F0B0FA17F0010F4D
:101E400005464FF0010712D000F0A8FA401BB0F58C
:101E5000803F07D384F84470002084F845000320B5
:101E6000BDE8F0812068006910F0010FECD1206816
:101E7000406980B2306084F844700020BDE8F08191
:101E800090F84510012904BF0220704770B4012268
:101E900083B080F84520022180F8441001680023B7
:101EA000D1F800C04CF0080CC1F800C006683168D9
:101EB0002E4C00914FF4FA552168B1FBF5F10291D7
:101EC00000BF0299B1F1010CCDF808C0F8D2009919
:101ED00031600168D1F800C04CF0040CC1F800C0BA
:101EE0000668316800912168B1FBF5F1029100BFED
:101EF0000299B1F1010CCDF808C0F8D20099316017
:101F0000016801F58051D1F818C04CF4801CC1F86B
:101F100018C0016801F58056B16900912168B1FBD4
:101F2000F5F1029100BF0299B1F1010CCDF808C0A2
:101F3000F8D20099B161016801F58051D1F818C05B
:101F40004CF4005CC1F818C0016801F58051D1F86B
:101F500018C04CF0020CC1F818C080F8442080F87A
:101F6000453003B0002070BC704700000C0000201A
:101F700090F845200023012A04BF022070472DE974
:101F8000F001012780F84570022280F844200026E5
:101F900079B1D0F82CC0DCF8002012F0004F10D03E
:101FA000122180F8441080F84560BDE8F00101205E
:101FB000704780F8447080F84560BDE8F00101206A
:101FC000704740F2F455A94221D9B1FBF5F4B1FBB9
:101FD000F5F205FB1414002C18BF521C012A16D070
:101FE000002A48D9C2F10104C4EBC41404EB440430
:101FF00001EB8401A2F1010CC1F30C04C16AD1F818
:10200000008028F04058C1F80080D3B912E0DCF815
:10201000002042F04052CCF80020C26AC1F30C010B
:102020005160C16A0A6842F000420A60C16AC96828
:10203000C16220E0C16AD1F8008048F08058C1F840
:102040000080C16A63454D6008D1C16AD1F8008043
:1020500048F00058C1F80080C16A4C60C16AD1F8EC
:10206000008048F00048C1F80080C16A5B1C9342C0
:10207000C968C162C2D3016801F580514A6912F092
:10208000040F05D004224A61016801F580514E60B9
:1020900080F8447080F84560BDE8F001002070478A
:1020A00070B5044690F84400422804BF022070BD79
:1020B000422084F8440020680369B4F810C04FF44B
:1020C000784503F01C0305EACC2C4CEA03034FF4DB
:1020D000F86C0CEA8111194341F0030691B2416199
:1020E0002068066100F05AF916F0010F05464FF01E
:1020F000010611D000F052F9401BB0F5803F06D325
:1021000084F84460002084F84500032070BD2068F6
:10211000006910F0010FEDD184F84460002070BD1B
:1021200070B50F4D0F4E0124012804D002280CD0A9
:1021300004280ED010E001210B4800F025F90028FA
:1021400014BF2C71EC70346070BD022030606C7074
:1021500002E004203060AC7004490020087070BDBB
:10216000DC020020143C014000180240584D0020C1
:1021700004490A68024208BF704710B50860FFF7BB
:10218000CFFF10BD143C01402DE9F84F7B4D7A4C38
:1021900000224FF001094FF0030C4FF00F0A05F138
:1021A000040E00BF0B6809FA02F63340B34240F058
:1021B000DC800F7907F00307012F18BF022F19D118
:1021C000D0F808804FEA42070CFA07FB28EA0B0810
:1021D000D1F80CB00BFA07F747EA080787604768A1
:1021E00027EA06060F79C7F3001707FA02F747EA4E
:1021F000060646604E683CEA06060BD0C7685600E5
:102200000CFA06F827EA0807D1F8088008FA06F65B
:102210003E43C6600E7906F00306022E11D1D608A1
:1022200000EB8607D7F820805607F60E0AFA06FB61
:1022300028EA0B08D1F810B00BFA06F646EA0806B1
:102240003E62076856000CFA06F827EA080791F87C
:10225000048008F0030808FA06F63E4306604E685C
:1022600016F4403F7DD0266846F4804626602668F6
:1022700006F48046009622F0030606F1804707F533
:102280009837D7F808889607360F0AFA06FB28EA27
:102290000B08A0F1804BBBF5003B38D0A0F1804B80
:1022A000BBF5013B08BF4FF0010B30D0A0F1804BD4
:1022B000BBF5023B08BF4FF0020B28D0A0F1804BCA
:1022C000BBF5033B08BF4FF0030B20D0A0F1804BC0
:1022D000BBF5043B08BF4FF0040B18D0A0F1804BB6
:1022E000BBF5053B08BF4FF0050B10D0A0F1804BAC
:1022F000BBF5063B08BF4FF0060B08D0A0F1804BA2
:10230000BBF5073B0CBF4FF0070B4FF0080B0BFA68
:1023100006F646EA0806C7F808682E684F689E4326
:1023200017F4803F18BF1E432E60DEF800604F6830
:102330009E4317F4003F18BF1E43CEF80060104FB5
:102340003E68D1F804809E4318F4801F18BF1E43D6
:102350003E600C4F3E68D1F804809E4318F4001F85
:1023600000E002E018BF1E433E60521C102AFFF43A
:1023700019AFBDE8F88F000044380240003C01402E
:10238000083C01400C3C01400069084018BF012096
:102390007047002A08BF09048161704701488068BE
:1023A0007047000000000020002804BF0120704793
:1023B00070B504464CF6CC4021680860216845F2AF
:1023C00055500860D4E9000141602168A068886028
:1023D000FFF7E4FF05462068C06810F0030F10D037
:1023E000FFF7DCFF401B312806D92068C06810F0D9
:1023F000030F01D0032070BD2068C06810F0030FE8
:10240000EED121684AF6AA200860002070BD00685D
:102410004AF6AA2101600020704700000248816846
:102420000278114481607047000000200B4810B50D
:10243000016841F400710160016841F4806101604C
:10244000016841F480710160032000F087F80020EA
:1024500000F006F800F024F8002010BD003C024017
:1024600070B50D4D04464FF47A712878B1FBF0F049
:102470000A490968B1FBF0F000F0B2FB48B9102C32
:1024800007D200222146501E00F036F800206C6072
:1024900070BD012070BD0000000000200C00002075
:1024A0000B4882B0016841F480410160006800F48B
:1024B000804000900748016841F080510160006849
:1024C00000F080500090062002B000F047B80000F5
:1024D00044380240403802400028B8BF704700F03E
:1024E0001F01012202FA01F14009800000F1E02001
:1024F000C0F8001170470000174B10B41B68C3F3FD
:102500000223C3F1070CBCF1040F88BF4FF0040C89
:102510001C1D072C34BF0023DB1E012404FA0CFC15
:10252000ACF1010C0CEA0101994004FA03F35B1EC3
:102530001A40114300284FEA0111A1BF00F1E02029
:1025400080F8001410BC704700F00F0000F1E0208C
:1025500080F8141D10BC70470CED00E0074900F036
:1025600007000A684FF6FF031A4042EA002040F0D5
:10257000FD7040F080600860704700000CED00E0E6
:10258000002804BF012070472DE9F0474D4E044656
:102590000F46306801F0FF0800F00700B84206D28D
:1025A00086F80080306800F00700B84261D12068EA
:1025B000454D10F0020F14D010F0040F03D028681E
:1025C00040F4E0502860207810F0080F03D028680D
:1025D00040F4604028602868A16820F0F0000843BB
:1025E0002860207810F0010F37D060683749012843
:1025F00023D0022818BF0328096823D011F0020F46
:1026000037D0296821F0030141EA00002860FFF774
:10261000C5FE81462868616800F00C00B0EB810FB0
:1026200018BF41F2883A18D0FFF7B8FEA0EB0900B6
:1026300050450BD90320BDE8F087096811F4003F2D
:10264000DFD116E011F0007FDBD112E0286861686D
:1026500000F00C00B0EB810FE6D1306800F007000D
:10266000B84209D986F80080306800F00700B84207
:1026700002D00120BDE8F087207810F0040F05D0CB
:102680002868E16820F4E05008432860207810F0C2
:10269000080F06D02868216920F4604040EAC10094
:1026A000286000F061F82968094AC1F30311515C00
:1026B000C8400849086008480068FFF7D1FE0020BC
:1026C000BDE8F087003C0240083802400038024074
:1026D000FC4001080C000020040000200F220260D2
:1026E0000C4A136803F003034360136803F0F0031C
:1026F0008360136803F4E053C36012684FF4E0533F
:1027000003EAD20202610448006800F00700086092
:102710007047000008380240003C02400148006851
:10272000704700000C000020044805490068096853
:10273000044AC1F38221515CC84070470C0000205C
:10274000083802400C41010804480549006809683E
:10275000044AC1F34231515CC84070470C0000206C
:10276000083802400C4101081848006810F00C02BB
:10277000174808BF70471749042A04BF0846704726
:10278000082A18BF704710B5134C2268236802F05E
:102790003F0213F4800F08D020680023C0F3881094
:1027A000A0FB0101FDF70CFD07E021680023C1F348
:1027B0008811A1FB0001FDF703FD2168C1F3014170
:1027C000491C4900B0FBF1F010BD00000838024080
:1027D0000024F40000127A0004380240002804BFEC
:1027E000012070472DE9F84F04460078DFF8CC83CC
:1027F00010F0010FA8F1040558D008F10400016899
:1028000001F00C01042909D0006800F00C00082830
:102810000DD1D8F8000010F4800F08D0286810F40B
:10282000003F43D06068002800F0C1813EE060684E
:10283000B0F5803F19D0B0F5A02F28680CBF40F448
:10284000802020F48030286028680CBF40F480305D
:1028500020F4802028606068B8B1FFF79FFD06462D
:10286000286810F4003F05D020E0286840F480304C
:102870002860F0E7FFF792FD801B642800F22F81AB
:10288000286810F4003FF5D010E0FFF787FD0646FA
:10289000286810F4003F09D0FFF780FD801B6428F2
:1028A00000F21D81286810F4003FF5D12078C44F54
:1028B00010F0020F47D0C349086810F00C0F16D073
:1028C000086800F00C00082804BFD8F8000010F4D5
:1028D000800F0CD0E06820B34FF001003860FFF7A4
:1028E0005DFD0646286810F0020F09D011E0286847
:1028F00010F0020F1CBFE06801280AD000F057B9A1
:10290000FFF74CFD801B02287ED8286810F0020FCC
:10291000F6D02868216920F0F80040EAC10028605C
:1029200011E000203860FFF739FD0646286810F0F6
:10293000020F08D0FFF732FD801B022864D82868F8
:1029400010F0020FF6D1207810F0080F2AD09E4820
:102950009E4E616999B101210160FFF71FFD81461B
:10296000306810F0020F1DD1FFF718FDA0EB090031
:10297000022849D8306810F0020FF5D012E000218B
:102980000160FFF70BFD8146306810F0020F09D09F
:10299000FFF704FDA0EB0900022835D8306810F0DD
:1029A000020FF5D1207810F0040F7FD088484FF047
:1029B000000B006810F0805F0AD18548016841F083
:1029C0008051016000684FF0010B00F080500090D2
:1029D000DFF80092D9F8000010F4807F1AD1D9F8FE
:1029E000000040F48070C9F80000FFF7D7FC0646ED
:1029F000D9F8000010F4807F0CD100BFFFF7CEFCA7
:102A0000801B02286BD800E069E0D9F8000010F4C0
:102A1000807FF3D0A068704E01281BD00528306855
:102A20000CBF40F0040020F00100306030680CBFA3
:102A300040F0010020F00400C6F80000A06841F258
:102A4000883AB8B1FFF7AAFC8146306810F0020F4F
:102A500005D021E0306840F001003060EEE7FFF77C
:102A60009DFCA0EB0900504539D8306810F0020FEA
:102A7000F5D011E0FFF792FC8146306810F0020FAC
:102A80000AD000BFFFF78AFCA0EB0900504526D80A
:102A9000306810F0020FF5D1BBF1000F06D04C48A2
:102AA000016821F0805100E000E00160A069E8B316
:102AB0004449096801F00C01082950D002284FF060
:102AC000000038660ED0FFF769FC0446286810F055
:102AD000007F6FD0FFF762FC001B02283AD9032069
:102AE000BDE8F88FFFF75AFC0646286810F0007F13
:102AF00009D000BFFFF752FC801B0228EFD82868DE
:102B000010F0007FF6D1D4E907010843A16A334AE7
:102B1000490802EB0141626A41EA8211084394F8D4
:102B20002C1040EA0160C8F8000000E042E00120FB
:102B30003866FFF733FC0446286810F0007F39D16F
:102B4000FFF72CFC001B0228C9D8286810F0007F72
:102B5000F6D02FE0286810F0007FBBD12AE00128D2
:102B600008BFBDE8F88FD8F80000E26900F48001E2
:102B700091421CD1226A00F03F01914217D147F6E1
:102B8000C071626A0140B1EB821F10D1A26A4FF09E
:102B9000FF3300F4403103EB5202B1EB024F06D198
:102BA00094F82C1000F07060B0EB016F02D001209F
:102BB000BDE8F88F0020BDE8F88F0000043802401F
:102BC0000000474208380240800E474274380240F5
:102BD0004038024000700040703802400000FFFFA3
:102BE000411EB1F1807F24BF012070474FF0E020EB
:102BF0004161054AF02182F8141D002181610721FD
:102C000001610020704700000FE000E0704770474E
:102C100090F83C20012A04BF02207047012280F86E
:102C20003C20CA688B6822F440721A434B6822F435
:102C300080621A430B6822F400621A430B6922F483
:102C400080521A434B6922F400521A43C96922F494
:102C50008042114302685164002180F83C1008460C
:102C6000704790F83C20012A04BF0220704730B41E
:102C7000012380F83C30022280F83D20026854682D
:102C8000D2F808C00D6824F070042C435460026828
:102C9000A2F18044B4F5803418BFB2F1804F1DD04A
:102CA000A2F18044B4F580641CBFA2F18044B4F565
:102CB000006413D0A2F18044B4F540641CBFA2F1BB
:102CC0008044B4F5823409D0A2F18044B4F5A03434
:102CD0001CBFA2F18044B4F5C05405D149682CF062
:102CE000800C41EA0C01916080F83D30002180F8B1
:102CF0003C1030BC08467047002804BF01207047D4
:102D000010B5044690F83D0028B9002084F83C0036
:102D1000204600F01FF8022084F83D00211D2068A5
:102D200002F008FA012084F8460084F83E0084F896
:102D30003F0084F8400084F8410084F8420084F8A1
:102D4000430084F8440084F8450084F83D000020E6
:102D500010BD0000006881B0A0F18041B1F5823162
:102D60001CBF01B070470548016841F002010160D5
:102D7000006800F00200009001B070474438024043
:102D800090F83D1001291CBF01207047022180F8F6
:102D90003D100068A0F18041B1F5803118BFB0F15D
:102DA000804F1DD0A0F18041B1F580611CBFA0F122
:102DB0008041B1F5006113D0A0F18041B1F54061CF
:102DC0001CBFA0F18041B1F5823109D0A0F1804152
:102DD000B1F5A0311CBFA0F18041B1F5C05104D1C3
:102DE000816801F00701062903D0016841F0010163
:102DF00001600020704790F83D1001291CBF0120A0
:102E00007047022180F83D100168CA6842F0010253
:102E1000CA600068A0F18041B1F5803118BFB0F1FF
:102E2000804F1DD0A0F18041B1F580611CBFA0F1A1
:102E30008041B1F5006113D0A0F18041B1F540614E
:102E40001CBFA0F18041B1F5823109D0A0F18041D1
:102E5000B1F5A0311CBFA0F18041B1F5C05104D142
:102E6000816801F00701062903D0016841F00101E2
:102E700001600020704790F83C200023012A0DBF1C
:102E800002204FF0010C80F83CC0704770B4022261
:102E900080F83D200268946824F0770424F47F448D
:102EA00094600A68502A43D00CDC202A75D004DCD8
:102EB000002A18BF102A0FD18BE0302A6DD0402A8B
:102EC0006DD009E0602A4DD0702A0ED0B2F5805F37
:102ED00003D0B2F5005F19D0012380F83DC0002176
:102EE00080F83C1070BC18467047D1E90145026873
:102EF000C968966844EA012126F47F462943314394
:102F0000916001688A6842F077020FE0D1E90145DB
:102F10000268C968966844EA012126F47F4629437D
:102F20003143916001688A6842F480428A60D4E744
:102F30000268CD684C68116A166A26F001061662AE
:102F4000966921F00A0126F0F00646EA05152143AC
:102F50009561116201688A6822F0700242F057029E
:102F60008A60BAE70268CD684C68116A21F01001E6
:102F700011629669116A26F4704646EA053521F019
:102F8000A00141EA04119561116201688A6822F08A
:102F9000700242F067028A609FE71AE0FFE702686A
:102FA0004C68C968156A166A26F0010616629669A9
:102FB00025F00A0526F0F00646EA01112C4391613E
:102FC000146201688A6822F0700242F047028A6047
:102FD00083E701688C6824F07004224342F0070202
:102FE0008A607AE7704770B50446006801694FF05F
:102FF000000511F0020F1CBFC16811F0020F13D0C1
:103000006FF002010161012020772068806910F0D3
:10301000030F204602D0FFF7E5FF04E000F0D6F9E9
:10302000204600F029FB25772068016911F0040F84
:103030001CBFC16811F0040F13D06FF004010161CF
:10304000022020772068806910F4407F204602D05B
:10305000FFF7C8FF04E000F0B9F9204600F00CFBD0
:1030600025772068016911F0080F1CBFC16811F0B5
:10307000080F13D06FF00801016104202077206849
:10308000C06910F0030F204602D0FFF7ABFF04E049
:1030900000F09CF9204600F0EFFA257720680169DE
:1030A00011F0100F1CBFC16811F0100F13D06FF09A
:1030B00010010161082020772068C06910F4407F6A
:1030C000204602D0FFF78EFF04E000F07FF9204693
:1030D00000F0D2FA25772068016911F0010F1CBFBA
:1030E000C16811F0010F05D06FF0010101612046A8
:1030F00000F034FB2068016911F0800F1CBFC1682B
:1031000011F0800F05D06FF0800101612046FFF7BC
:103110007DFD2068016911F0400F1CBFC16811F0EE
:10312000400F05D06FF040010161204600F042FBE6
:103130002068016911F0200F1ABFC16811F0200F3B
:1031400070BD6FF0200101612046BDE87040FFF7BF
:103150005EBD000000B587B0002100910191029191
:1031600003910491036823490222A3F18040B0F542
:1031700080301FD02048A3F1804CBCF5806C29D052
:10318000A3F1804CBCF5006C1CBF07B000BD0B6800
:1031900043F002030B60096801F0020105914FF44E
:1031A0008071CDE90012012103916946FEF7ECFF21
:1031B00007B000BD086840F0010008600868694673
:1031C00000F0010005904FF40070CDE900020B48BB
:1031D00003920BE00B6843F002030B60096801F0F7
:1031E000020105912021CDE900126946FEF7CCFFCE
:1031F00007B000BD30380240000402400010024019
:103200002DE9F00190F83C300024012B02BF022090
:10321000BDE8F0017047012380F83C30694BDFF8CE
:10322000A8C172B1042A3FD0082A73D00C2A18BF53
:1032300001246ED0002180F83C102046BDE8F0014A
:1032400070470268156A25F001051562156A56680F
:103250009769D1F8008027F0730748EA0707D1F88B
:10326000088025F0020548EA05059A4218BF624524
:1032700007D1D1F80C8025F0080548EA050525F0AE
:1032800004059A4218BF624509D1D1F814C026F44A
:1032900040734CEA0303D1F818C04CEA03065660A9
:1032A00097614968516331E00268156A25F010059D
:1032B0001562156A56689769D1F8008027F4E647C9
:1032C00047EA0827D1F8088025F0200545EA0815C7
:1032D0009A4218BF624507D1D1F80C8025F08005CD
:1032E00045EA081525F040059A4218BF624509D104
:1032F000D1F814C026F4406343EA8C03D1F818C017
:1033000043EA8C065660976149689163156291E7BC
:1033100000E033E00268156A25F480751562156ACD
:103320005668D769D1F8008027F0730748EA070785
:10333000D1F8088025F4007545EA08259A4218BF9F
:10334000624507D1D1F80C8025F4006545EA0825CF
:1033500025F480659A4218BF624509D1D1F814C09E
:1033600026F4405343EA0C13D1F818C043EA0C1674
:103370005660D7614968D16315625BE70268156AD8
:1033800025F480551562176A5568D669D1F8008012
:1033900026F4E64646EA0826D1F8088027F40057C6
:1033A00047EA08379A4218BF624505D1D1F814C0E0
:1033B00025F4804343EA8C155560D6614968116451
:1033C000176237E700000140000401407047000029
:1033D0002DE9F00190F83C300024012B02BF0220BF
:1033E000BDE8F0017047012380F83C30894BDFF8DD
:1033F00028C27AB1042A50D0082A7DD00C2A18BFDE
:10340000012400F0D380002180F83C102046BDE864
:10341000F00170470268156A25F001051562156A0A
:1034200056689769D1F8008027F0730748EA0707C4
:10343000D1F8088025F0020548EA05059A4218BF30
:10344000624507D1D1F80C8025F0080548EA05054A
:1034500025F004059A4218BF624509D1D1F814C07D
:1034600026F440734CEA0303D1F818C04CEA030673
:10347000566097614B68536315620268936943F025
:10348000080393610268936923F00403936102685F
:103490009369096943EA010143E00268156A25F06E
:1034A00010051562156A56689769D1F8008027F4EF
:1034B000E64747EA0827D1F8088025F0200545EAC5
:1034C00008159A4218BF624507D1D1F80C8025F043
:1034D000800545EA081525F040059A4218BF624567
:1034E00009D1D1F814C026F4406343EA8C03D1F823
:1034F00018C043EA8C0600E015E0566097614B68FF
:10350000936315620268936943F4006393610268F0
:10351000936923F48063936102689369096943EABC
:10352000012191616FE70268156A25F480751562C3
:10353000156A5668D769D1F8008027F0730748EA02
:103540000707D1F8088025F4007545EA08259A4256
:1035500018BF624507D1D1F80C8025F4006545EA13
:10356000082525F480659A4218BF624509D1D1F833
:1035700014C026F4405343EA0C13D1F818C043EAB0
:103580000C165660D7614B68D36315620268D36925
:1035900043F00803D3610268D36923F00403D361C5
:1035A0000268D369096943EA010131E00268156ADA
:1035B00025F480551562166A5568D769D1F80080E0
:1035C00027F4E64747EA0827D1F8088026F4005692
:1035D00046EA08369A4218BF624505D1D1F814C0B0
:1035E00025F4804343EA8C155560D7614B6813641A
:1035F00016620268D36943F40063D3610268D36939
:1036000023F48063D3610268D369096943EA012125
:10361000D161F8E60000014000040140002804BF29
:103620000120704710B5044690F83D0028B90020ED
:1036300084F83C00204600F01EF8022084F83D008B
:10364000211D206801F076FD012084F8460084F8F1
:103650003E0084F83F0084F8400084F8410084F87C
:10366000420084F8430084F8440084F8450084F85C
:103670003D00002010BD704770470000022361B17B
:1036800004294BD0082951D090F84120012A08BFC5
:1036900080F8413008D00120704790F83E20012A80
:1036A00008BF80F83E30F6D101F01F030268012107
:1036B0009940136A8B431362136A19431162254AB6
:1036C0000168254B914218BF994205D1D1F844C0F9
:1036D0004CF4004CC1F844C00068904218BFB0F1EF
:1036E000804F2BD0A0F18041B1F580611CBFA0F1CB
:1036F0008041B1F5006121D0A0F18041B1F5406178
:1037000018BF98421AD0A0F18041B1F5A0311CBF7A
:10371000A0F18041B1F5C05110D014E090F83F20E5
:10372000012A08BF80F83F30B5D1BDE790F84020AE
:10373000012A08BF80F84030ADD1B5E7816801F0BB
:103740000701062903D0016841F001010160002052
:10375000704700000000014000040140016810486B
:1037600002681048914202D10068B8B970470E4A09
:103770001268914202D1406880B970470B4A1268C2
:10378000914202D1806848B97047094A1268914253
:1037900018BF7047C068002808BF70470047000086
:1037A000044E0020F40200204C4E0020DC4E00208D
:1037B000244F0020704738B5044690F83E0020287A
:1037C00028D1002912BF002A012038BD94F83C00FE
:1037D00001281FD0012084F83C002063204601F01E
:1037E0004FFF030004D1206B012818BF012301D033
:1037F000184638BD2068016840680090206800F1D4
:103800000C0151E8000F40F0100041E80002002ACE
:10381000F4D1EDE7022038BDD0F800C01C481D4BA4
:10382000421584450FD1D96019689960D3F800C05A
:1038300003F552718C4508BF174919605A605A68E0
:10384000196801F0E9BD154884450ED1196259691E
:10385000D961D3F814C012498C4508BF1149596188
:103860009A619A69596901F0D7BD0F48844518BF1C
:1038700070475963996A1963D3F828C00B498C457E
:1038800008BF0B499962DA62DA6A996A01F0C4BD2D
:1038900000100140103E0020584300200048004026
:1038A000584500205847002000500040584900204B
:1038B000584B002070B504460068406994F83D10EC
:1038C000C0F3C010202521291CD1D8B120681430A4
:1038D00050E8001F21F0800140E80012002AF5D1D5
:1038E000606B002818BFFDF7AFFC206800F10C01E9
:1038F00051E8000F20F0C00041E80002002AF4D196
:1039000084F83D502068406994F83E10C0F3801060
:10391000222937D1B0B3206800F1140151E8000F1B
:1039200020F0400041E80002002AF4D1A06B0028FA
:1039300018BFFDF789FC206800F10C0151E8000F69
:1039400020F4907041E80002002AF4D1206814307D
:1039500050E8001F21F0010140E80012002AF5D1D3
:10396000206B01280AD1206800F10C0151E8000FFA
:1039700020F0100041E80002002AF4D184F83E5003
:1039800000202063002070BD70470000F8B501687A
:1039900004460868CA684B6910F00F0F4FF0200604
:1039A0004FF0000560D003F0010C02F490775CEA60
:1039B00007077DD010F0010F18BF12F4807F03D0ED
:1039C000216C41F00101216410F0040F18BF13F0C5
:1039D000010F03D0216C41F00201216410F0020FAD
:1039E00018BF13F0010F03D0216C41F004012164D2
:1039F00010F0080F1CBF02F0200151EA0C0103D0A7
:103A0000216C41F008012164216C002908BFF8BD38
:103A100010F0200F1EBF12F0200F204601F052FDC3
:103A200020684069216CC0F3801011F0080F08BFB6
:103A3000002858D0206800F10C0151E8000F20F454
:103A4000907041E80002002AF4D1206800F11401CE
:103A500051E8000F20F0010041E80002002AF4D1F3
:103A6000206B012816D10AE010F0200F18BF12F0C9
:103A7000200F3DD02046BDE8F84001F023BD20686E
:103A800000F10C0151E8000F20F0100041E80002A5
:103A9000002AF4D184F83E6025632068406910F064
:103AA000400F1CD0206800F1140151E8000F00E025
:103AB0001EE020F0400041E80002002AF2D1A06B95
:103AC00068B172490165A06BFDF711FC002808BFC1
:103AD000F8BDA06B016D01B0BDE8F040084720467D
:103AE000FFF752FFF8BD2046FFF74EFF2564F8BDF3
:103AF000236B012B7ED110F0100F18BF12F0100FA6
:103B00007FD0086848680090486910F0400F45D0A1
:103B1000A16B086840680004000C1CBFA28D8242A3
:103B200098BFF8BDE085C869B0F5807F2ED02068C9
:103B30000C3050E8001F21F4807140E80012002A88
:103B4000F5D1206800F1140151E8000F20F00100C8
:103B500041E80002002AF4D12068143050E8001F28
:103B600021F0400140E80012002AF5D184F83E60BF
:103B7000256320680C3050E8001F21F0100140E858
:103B80000012002AF5D1A06BFDF75EFBA08DE18D40
:103B9000401A81B22046FFF73FFEF8BDA08DE18DAF
:103BA000401A81B2E08D002814BF0029F8BD2068BA
:103BB00000F10C0050E8002F22F4907240E800233E
:103BC000002BF4D1206800F1140252E8000F20F01D
:103BD000010042E80003002BF4D184F83E60256325
:103BE000206800F10C0050E8002F22F0100240E89D
:103BF000002300E005E0002BF2D12046FFF70CFE89
:103C0000F8BD10F0800F18BF12F0800F2DD094F87F
:103C10003D00212818BFF8BDA068B0F5805F04BF43
:103C200020690028206A18D000F101012162216872
:103C300000784860E08CA0F101000004000CE084F2
:103C400018BFF8BD2068C16821F08001C1602068FC
:103C5000C16841F04001C160F8BD0088C0F30800B0
:103C60004860206A801C2062E4E710F0400F14BF17
:103C700012F0400FF8BD2046CA6822F04002CA6028
:103C800084F83D6000F032F9F8BD00005D52000894
:103C9000002804BF0120704770B5044690F83D002D
:103CA000002520B984F83C50204600F022F824205A
:103CB00084F83D002068C16821F40051C1602046AD
:103CC00001F066FC2068016921F4904101612068DF
:103CD000416921F02A0141612068C16841F4005125
:103CE000C1602564202084F83D0084F83E00002057
:103CF00070BD7047704770472DE9F05F044690F83B
:103D00003D001D461646884620287DD1B8F1000F9B
:103D100012BF002E0120BDE8F09F94F83C0001285E
:103D200072D0012084F83C004FF0000BC4F840B082
:103D3000212084F83D00FEF731FBA6848146E6840D
:103D4000A068B0F5805F03BF2069002800264646C2
:103D500018BF4FF0000884F83CB0E08C4FF0200A08
:103D6000C0B300BF20684FF08007006837EA00004A
:103D700025D000BFB5F1FF3F1CD02DB1FEF70EFBE3
:103D8000A0EB0901A94215D9206800F10C0151E806
:103D9000000F20F4D07041E80002002AF4D120681E
:103DA000143050E8001F21F0010140E80012002A01
:103DB000F5D135E02068006837EA0000DAD1C6B3F3
:103DC000216816F8010B4860E08C401EE084E08C0E
:103DD0000028C7D120684026006836EA000035D0A8
:103DE000B5F1FF3F2DD02DB1FEF7D8FAA0EB0900B9
:103DF000A84226D920680C3050E8001F21F4D07169
:103E000040E80012002A00E025E0F3D120681430D9
:103E100050E8001F21F0010140E80012002AF5D10E
:103E200084F83DA084F83EA084F83CB00320BDE8AF
:103E3000F09FFFE738F8020B2168C0F308004860E4
:103E4000C2E72068006836EA0000C9D184F83DA0C6
:103E50000020BDE8F09F0220BDE8F09F70B5044649
:103E600090F83D00202839D1002912BF002A0120F6
:103E700070BD94F83C00012830D0012084F83C004B
:103E80002162A284E28400252564212084F83D007B
:103E9000636B1348D863636B12481864636B1248F2
:103EA000D864606B13460565206800F1040C624617
:103EB000606BFDF7CBFB21686FF04000086084F871
:103EC0003C50206800F1140151E8000F40F08000E0
:103ED00041E80002002AF4D1002070BD022070BD2C
:103EE000C35300080D5400086D5200087047704716
:103EF000FEE7000010B5084C064A2260C4E9010143
:103F00002046FEF751FA00B1FEE721684CF6CC409E
:103F1000086010BD003000406C4F002010B500F06C
:103F200006F800F06FF9BDE8104000F041B904F068
:103F300095BA10B500F078FABDE8104040F23E4066
:103F400004F042BE10B504F075FC064805F00EFF03
:103F500009F08CFB0348FDF75DF9BDE8104001480E
:103F6000FCF7CCBE703C002010B500F049FE0121EA
:103F7000084600F0CBFE0021BDE81040084600F0E6
:103F8000C5BE000070B5002000F0A2FE3F4C48B94D
:103F90000121084600F0BAFED4E90320D4E901313A
:103FA00000F02EFC012000F093FE002818BF002036
:103FB00005D02070022000F08BFE58B905E00021EA
:103FC000012000F0A3FE0120F3E74FF4FA40206146
:103FD00002202070032000F07BFE002804BF2C4844
:103FE0002061042000F074FE28B9D4E902120020F8
:103FF000636800F0F5FB00F05FFA264C264DB4F83C
:104000006A0038B10021032000F080FE0320A5F8EB
:10401000900003E00121032000F078FEB4F8640072
:10402000012100F0FDFA38B10021042000F06EFEFD
:104030000420A5F8900003E00121042000F066FEB2
:10404000B4F86400022100F0EBFA38B10021052039
:1040500000F05CFE0520A5F8900003E0012105209A
:1040600000F054FEB4F86400002100F0D9FA38B131
:104070000021062000F04AFE0620A5F8900070BD41
:10408000BDE870400121062000F040BEC8000020BD
:104090000083FFFF903D00209481002010B5FFF7C2
:1040A00048FFFFF761FF00F0BDF800F038F800F0BE
:1040B000B7F800F07EF84FF4FA70FDF711FBBDE899
:1040C000104001A001F0E4BE2D2D2D2D2D2D2D2D04
:1040D0002D2D2D2D2D2D2D2D2D2D2D2D2D2D2DB38A
:1040E000F5CABCBBAFCDEAB3C92D2D2D2D2D2D2D7D
:1040F0002D2D2D2D2D2D2D2D2D2D2D2D2D2D2D2DF0
:104100002D0A0D0010B5FFF71DFFFFF73BFF00F074
:1041100097F800F007F8BDE8104000F04FB800F045
:1041200083BC000070B500F0FBF8FDF729F8144DD2
:10413000144CB5F88E0090B161880822012001F07E
:104140005AFD60801048016810A001F0A1FE1348DC
:10415000016913A001F09CFE0020A5F88E00B5F8BF
:104160008C00618828B10522012001F044FD6080A7
:1041700070BD0222002001F03EFD608070BD000095
:1041800094810020903D0020E8020020B5B1C7B026
:10419000D6B5A3BA2564090A00000000E00000209B
:1041A000C9E8D6C3D6B5A3BA2564090A0000000041
:1041B000704740F271210420FFF79CBE10B5FDF757
:1041C0003DF80E4B3222DFF838C0002003EB4203EB
:1041D0000C210CEB420200BF33F810C022F810C0D3
:1041E000401C491EC0B2B1F1FF3FF5DC3222BDE8F0
:1041F00010400021014800F045B8000094810020E3
:10420000903D002010B50448FCF7DEFCBDE81040EE
:104210000248FCF7DFBC00001F52000821520008D2
:10422000FCF7D6BB10B54FF4E1310020FCF734FDAC
:10423000BDE810404FF4E1310220FCF72DBD000035
:1042400010B50220FCF7CCFC002808BF10BD64228A
:104250000A490220FCF7D8FC0848FCF727F8024678
:104260000649074801F014FE0448FCF71FF882B223
:10427000BDE8104001490220FCF71EBD0C3C0020A7
:1042800070460008F0B40023DFF888C0541E002AEE
:1042900020DD214E14F0010F0CF1C80505D135F8D1
:1042A00011303380ACF800300123641C641018BF57
:1042B00005EB41050ED0D9B25B1C35F811702CF816
:1042C0001170DFB25B1C35F817102CF81710641E44
:1042D000F1D13180111EA2F10102DCBFF0BC7047A8
:1042E000ACF10201801E12F0010F03D131F8023F40
:1042F00020F8023F521C521004BFF0BC70474B889C
:10430000438031F8043F20F8043F521EF7D1F0BC3F
:1043100070470000C83C0020F4000020FEE70000C9
:104320002DE9F0473B4C3C4D2646D4F87A00DFF8A7
:10433000EC904FEA304CC5F810C0B4F86E30B6F8C7
:104340007020B6F87400B6F87610B6F878704FF0B2
:104350000008012B0DD0324E022B16D0032B2CD08F
:10436000002B18BFBDE8F087B4F86C00002841D1DD
:104370004CE0012A18BFBDE8F087A9F870800A4612
:104380003B46C82100F0F0F92EE0012A08D1A9F837
:10439000708032680346AA603A46604600F030FA00
:1043A00028693168AA68891A814217D06188032276
:1043B000002001F020FC608016E0012A07D1A9F856
:1043C00070800346AA603A46604600F009FAA96880
:1043D00028690029EAD031688842E7D16188032240
:1043E000012001F008FC6080B4F86E00002818BFBE
:1043F000BDE8F087B4F87830B4F87620B4F87210DD
:1044000094F86C00BDE8F04700F03EB900F006FB00
:10441000CCE70000903D0020E000002094810020C7
:10442000E8020020FEE7000010B586B007F002F8B1
:104430000020059003900490174A00901749CDE999
:10444000011205AB04AA03A9154807F0AFFD1448F3
:1044500007F098FF1248134C90F8310010F0040F49
:104460000BD0114801F014FD0D4808F0B7F80120F9
:1044700020700B4803F0DAFE07E0094807F088FFD8
:1044800005202070094801F003FD0949044807F0A0
:10449000D5FF06B010BD0000D5980008C99B0008E4
:1044A000703C002004030020949A0008A89A000899
:1044B000559A00087047000070B5052000F008FC10
:1044C000564C00284FF00002618878D0002001F09F
:1044D00092FB6080062000F0FBFB072000F0F8FB59
:1044E000618800284FF002026ED0002001F083FBAB
:1044F0006080082000F0ECFB618800284FF0040287
:1045000067D0002001F077FB6080092000F0E0FB1D
:10451000618800284FF0010260D0002001F06BFBA1
:1045200060800A2000F0D4FB0125002600280CBF83
:10453000E580E6800B2000F0CBFB218900284FF0BE
:10454000000250D0002001F056FB20810C2000F02A
:10455000BFFB218900284FF0020249D0002001F062
:104560004AFB20810D2000F0B3FB218900284FF089
:10457000010242D0002001F03EFB20810E2000F01D
:10458000A7FB218900284FF003023BD0002001F057
:1045900032FB20810F2000F09BFB00280CBFA58080
:1045A000A680102000F094FB61894FF0000270B3E8
:1045B000002001F020FB608170BD00E004E00120DC
:1045C00001F019FB608085E7012001F014FB608099
:1045D0008FE7012001F00FFB608096E7012001F0DA
:1045E0000AFB60809DE7012001F005FB2081ADE71B
:1045F000012001F000FB2081B4E7012001F0FBFA6B
:104600002081BBE7012001F0F6FA2081C2E7FFE735
:10461000012001F0F0FA608170BD0000903D0020A3
:10462000012202FA01F1084018BF01207047000082
:1046300010B50220FCF7D4FA002808BF10BD642290
:104640000A490220FCF7E0FA0848FBF72FFE024671
:10465000064907A001F01CFC0448FBF727FE82B2C4
:10466000BDE8104001490220FCF726BB0C3C0020AD
:104670007273323332646174613D2532732C736915
:104680007A3D2532640D0A002DE9F04790468946AF
:1046900000210125304A314C1F46012802D0022852
:1046A00017D02CE0A0792E4E02280ED06079002879
:1046B00018BFBDE8F0874B463A464146304600F009
:1046C0009FF86571A571BDE8F087A079022816D121
:1046D00035E0A079234E01280ED06079002818BF5C
:1046E000BDE8F0874B463A464146304600F088F830
:1046F0006571A079BDE8F087A079012807D06079BD
:10470000012806BF11706171BDE8F087F1E760799B
:10471000012804BF117061710A20FCF7E1FF607984
:10472000002818BFBDE8F0874B463A464146304660
:1047300000F066F865710220A071BDE8F08760792D
:10474000012804BF117061710A20FCF7C9FF60796C
:104750000028B0D0BDE8F087584D0020DC020020D2
:1047600000A8610000589EFF2DE9FF5F6420DFF87C
:1047700060A0DFF860B0184C9846914603FB00F645
:10478000002502FB00F7207828B9324649465846F2
:10479000009B00F035F8E07801280FD16420FCF789
:1047A0009FFF01215046FDF7EFFD38B925713946CD
:1047B00042465846019B00F023F8E5702079012815
:1047C000E1D106480570E56004B0BDE8F09F000047
:1047D0000018024000589EFFDC020020584D0020C7
:1047E00030B4064C4FF0FF3CE468201A08BF4FF08D
:1047F000000C0CFB00F030BC00F002B8DC02002022
:104800002DE9F05F764C9A462DED048B9146884653
:1048100006004FF000054FF0010B08D584F801B0F9
:10482000002208216F48FDF7B4FD764205E065706F
:10483000012208216B48FDF7ACFD60786A4F012822
:104840007CD0787801281CBFBD707D7077D0012E98
:1048500076D0002E75D0654801686548A0FB011030
:10486000800800EE100AB8EE400ADFED620A60EE42
:10487000200A00EE10AAB8EE400A80EE801ABDEEC3
:10488000C10A84ED040A00EE108AF8EE400A9FED9A
:104890005A1A81EE200A10EE100AFBF728FE41ECAE
:1048A000100B01F021FB5148B0EE409AF0EE609AF7
:1048B00001684F48A0FB01108008FBF7ECFD9FED5D
:1048C000501B53EC112BFBF705FD9FED4F8B53EC69
:1048D000182BFBF771FDFBF71DFEFBF708FE53ECF1
:1048E000192BFBF7F7FC53EC182BFBF765FDFBF7D7
:1048F000DFFD00EE108A0246B8EE400ADFED440A02
:10490000B2EE041A606020EE200A0AFB0AF0C0EE44
:10491000010A00EE100AB8EE400A80EE201ABCEE42
:10492000C10A10EE100A002808BF012006FB09F199
:1049300008EB0903B1FBF3F1002903E01EE024E0DA
:1049400029E030E008BF0121814291BF881B00FBB4
:1049500008F0B0FBF9F04042E060002804BF4FF0DF
:10496000FF30E0603044A06020698242DDBF6060BB
:104970000320207084F800B0656114E0B878012845
:104980001CBF7D70BD707FF462AF25703D70BDECC3
:10499000048BBDE8F09F4FF0FF3060610220207073
:1049A0004FF47A70606087F800B01A4D2868416A49
:1049B000626812FA81F1416301220021164800F079
:1049C0001FFC2868C16841F00201C1600022BDECF3
:1049D000048B8021BDE8F05F0248FDF7DABC0000DF
:1049E000584D0020000C0240DC0200200C0000208A
:1049F000ABAAAAAA72D9203C705944430000000017
:104A00006F1283C0CAA1E53F0000000000002440EF
:104A1000CF0F493E744D00200004014001490020A1
:104A200008707047584D00202DE9F0436C4891B054
:104A30000024016841F002010160006800F00200FA
:104A400000906848016841F480710160016801F4D8
:104A500080711091016841F008010160016801F066
:104A600008011091016841F008010160016801F03E
:104A700008011091016841F040010160016801F0F6
:104A800040011091016841F0400101600068022579
:104A900000F0400010902020CDE900050320CDE972
:104AA000035069465048FDF76FFBCDE903540827D2
:104AB0000126DFF83881CDE9007669464046FDF7EA
:104AC00063FB8020CDE90006CDE9035469464046EA
:104AD000FDF75AFB012208214046FDF75AFC01224E
:104AE00080214046FDF755FC4FF40418CDE90058ED
:104AF0000296DFF8FC90CDE9035469464846FDF77D
:104B000043FB0420CDE900080296CDE90354694631
:104B10004846FDF739FB4FF44410CDE9006002969A
:104B2000CDE9035469464846FDF72EFB01220021DA
:104B30000720FDF7E1FC0720FDF7CEFC0122002154
:104B40000820FDF7D9FC0820FDF7C6FC0122002152
:104B50000620FDF7D1FC0620FDF7BEFC264EDFF84F
:104B600094900520C6F80090C6E901044FF6FF783E
:104B7000C6E903843046FEF7BFF8E8020C900CA9A2
:104B80003046FEF778F9CDE90874302007950A948D
:104B90000B94CDE90508002205A93046FEF730FB4D
:104BA00000221146484600F02BFB002211462E2021
:104BB000FDF7A2FC2E20FDF78FFC3168E01E086196
:104BC0003068C16821F00201C1603046FEF7D8F8B4
:104BD0003068416C41F40041416411B0BDE8F0839C
:104BE000443802403038024000200240000C0240AD
:104BF0000018024000040140744D0020704700007E
:104C00002DE9F047002786B02E4E009701970297B6
:104C1000039711253C46049704EB840006EB8003C0
:104C2000187850B1586808F0B1FC98680090D868BE
:104C3000029069465868FDF7A7FA601CC4B2AC42FE
:104C4000EAD34FF0010800974FF00209CDF8048035
:104C50000297CDE903970726DFF86CA0002500BF77
:104C600005EB85000AEB8004207880B1606808F0CD
:104C70008DFCA0680090E068029069466068FDF7CE
:104C800083FA2089227C81B26068FDF782FB681C70
:104C9000C5B2B542E4D34FF48810CDE90080039744
:104CA0006946CDF8089004970848FDF76DFA002290
:104CB00011460620FDF720FC0620FDF70DFC06B08E
:104CC000BDE8F08788010020FC00002000000240C1
:104CD00010B5112812D20C4900EB800001EB8000C6
:104CE000017859B1017C00290189406889B207D057
:104CF000FDF74AFB002804BF012010BD002010BDB5
:104D0000BDE81040FDF740BB88010020072828BF00
:104D1000704700EB80000C4A02EB80000278002A0A
:104D200008BF7047027C0AB109B106E029B10189C8
:104D3000406889B20122FDF72CBB0189406889B225
:104D40000022FDF726BB0000FC000020FDF766BB3B
:104D500030B593B0002523480295039504950C9532
:104D60000D950E950F951095016841F080510160E9
:104D7000006800F0805011901B48016841F48041A8
:104D800001600068022400F4804011900920009026
:104D90004FF4803001900120CDE905048005079093
:104DA000082008904FF4A870CDE9090404200B9066
:104DB0006846FDF713FD08B172B6FEE70F20CDE996
:104DC0000C044FF4A050CDE90E504FF480501090D9
:104DD00005210CA8FDF7D4FB002804BF13B030BD9B
:104DE00072B6FEE740380240007000400248016899
:104DF00041F470010160704788ED00E070B506462F
:104E00003D480D469CB00168002441F0010101605D
:104E10000068159416940B940C940194029400F07D
:104E20000100149406940794179418941994CDE9EA
:104E30001A40089409940A940D940E9400940394D3
:104E4000049405941AA90FA8FDF748FC1298A0B184
:104E5000FDF76AFC5FEA4000B0FBF6F0411E28480F
:104E6000264A0260C0E90114C0E903548021C0E968
:104E70000541FDF741FF18B1FEE7FDF755FCEBE7F3
:104E80004FF48050149014A91D48FDF7F4FF00B1B1
:104E9000FEE71B48FEF7C2FB00B1FEE7189418A915
:104EA00017481994FDF7DDFE00B1FEE76020089079
:104EB0004FF4FA70CDE909040B940C940D94002280
:104EC00008A90F480E94FEF783FA00B1FEE700949C
:104ED0004FF40050CDE904400294019403946946D4
:104EE00007480794FDF794FE00B1FEE70448FEF77B
:104EF00031F91CB0012070BD44380240000001406F
:104F0000BC4D00200148FEF76EB80000044E0020A2
:104F10000148FEF768B800004C4E002030B5054649
:104F200024488BB00024026842F00202026000684C
:104F3000224A00F00200CDE907040994009401948C
:104F40001D480294039404940594069482E8330067
:104F5000146110469461FEF761FB00B1FEE708940E
:104F600008A916480994FDF77CFE00B1FEE7602011
:104F7000009068080190022002900422694604947F
:104F80000E48FEF725FA00B1FEE7002202211D209F
:104F9000FDF7B2FA1D20FDF79FFA0848FEF7DAF890
:104FA0000648FDF728FF04210448FEF767FB0BB015
:104FB000012030BD40380240000400404C4E00202B
:104FC0000148FEF710B80000244F00202DE9F047FB
:104FD000DFF84C810026D8F80000C16811F0020FFC
:104FE00008BFBDE8F0876FF00209C0F81090D8F84C
:104FF0000000426A4B4C61680A4492B242634A4DD7
:10500000E879401CC0B2E871022818BFBDE8F087FB
:105010000027EF7194F800A0BAF1000F10D0424BB6
:1050200001224FF0020C18695B69401CBAF1010FB4
:105030001ED0BAF1020F57D0BAF1030F3FD050E0A3
:105040002F610022114639486F6100F0D9F8D8F875
:105050000000C0F81090D8F80000C16821F00201EB
:10506000C160012280213248FDF793F92F7038E0AA
:1050700028616678002EEE6814BF761E761CEE60FE
:10508000666903EB4103761C02EB8602666193FBC3
:10509000F2F6891B8EB293FBF2F102FB11316961CA
:1050A000A16881429CBFE068606118D92069B04264
:1050B00017DB2E8186B203206F61207011E028611A
:1050C00061780029E96814BF491E491CE960218AFA
:1050D0008EB2A168814204D8E06860612E8984F8AC
:1050E00000C06660BDE8F087286160780028E86845
:1050F00014BF401E401CE860606903EB4103401C84
:1051000002EB800293FBF2FCA1EB0C018EB293FB4D
:10511000F2F102FB11316061696158BF2770E0E76D
:10512000744D0020584D0020DC0200200004014096
:10513000000C0240F0B402682C4B2D4C2D4D2E4E2D
:10514000DFF8B8C0984218BFB0F1804F07D0A04236
:1051500018BFA84203D0B04218BF604504D14F68C1
:1051600022F0700247EA0202984218BFB0F1804F65
:1051700025D0A04218BFA84221D0B04218BF604538
:105180001DD0A0F18044B4F5A0341CBFA0F1804430
:10519000B4F5A23413D0A0F18044B4F5A4341CBFFC
:1051A000A0F18044B4F5C05409D0A0F18044B4F516
:1051B000E0541CBFA0F18044B4F5005403D1CC6886
:1051C00022F4407222434C6922F0800222430260A2
:1051D0008A68C2620A688262984212BF60450969A1
:1051E00001634FF001014161F0BC704700000140D4
:1051F0000004004000080040000C00400004014092
:1052000001F01F010123D0F820C08B402CEA0303DA
:105210000362036A02FA01F11943016270477047A1
:1052200009490888401C80B20880B0F57A7F18BF11
:105230007047064800230288B2F57A7F9ABF521C55
:10524000028003800B807047DC000020903D00202E
:105250000148FEF79BBB0000D43E002010B5806BD8
:105260000021C185C184FEF78FFB10BD10B5806B96
:105270000168496990F83D20C1F3C01100234FF047
:10528000200C212A10D1002918BFC3840CD001683A
:1052900001F10C0252E8001F21F0C00142E80014A5
:1052A000002CF4D180F83DC00168496990F83E2097
:1052B000C1F38011222A29D1002918BFC38525D026
:1052C00001680C3151E8002F22F4907241E800246B
:1052D000002CF5D1016801F1140252E8001F21F001
:1052E000010142E80014002CF4D1016B01290AD11C
:1052F000016801F10C0252E8001F21F0100142E8A0
:105300000014002CF4D180F83EC00363016C41F01E
:1053100010010164FEF738FB10BD10B50146806B2B
:105320000968096811F4807F04BF0021C18531D16B
:10533000016801F10C0252E8001F21F4807142E87B
:105340000013002BF4D1016801F1140252E8001F90
:1053500021F0010142E80013002BF4D1016801F1B2
:10536000140252E8001F21F0400142E80013002B14
:10537000F4D1202180F83E10016B01290AD1016887
:1053800001F10C0252E8001F21F0100142E8001365
:10539000002BF4D1016B012902D0FEF7ABFC10BD4C
:1053A000818DFEF739FA10BD10B5806B016B0129B4
:1053B00002D0FEF7A0FC10BD818D4908FEF72CFA43
:1053C00010BD10B50146806B0968096811F4807F33
:1053D00004BF0021C18402D0FEF788FD10BD016822
:1053E00001F1140252E8001F21F0800142E800138D
:1053F000002BF4D1016801F10C0252E8001F41F0CA
:10540000400142E80013002BF4D110BD10B5806BB1
:10541000FEF76DFD10BD000070B50D46A0F1804196
:105420001446B1F588311CD0A0F18041B1F590410E
:1054300029D0A0F18041B1F5A04118BF70BD1B4833
:10544000FEF738FA194800684068A2B229461748A2
:10545000FEF7B1F916480068016821F00801016003
:1054600070BD1448FEF726FA124800684068A2B2E0
:1054700029461048FEF79FF90F480068016821F09F
:105480000801016070BD0D48FEF714FA0B48006872
:105490004068A2B229460948FEF78DF9084800681D
:1054A000016821F00801016070BD0000D43E0020B9
:1054B000984000204C3E0020183F0020903E0020E5
:1054C000D83F002008B590F83E1022291CBF0220CA
:1054D00008BD8268B2F5805F04BF01690029816A56
:1054E00018D0B2F5805F1DD0002A04BF0269002ADF
:1054F00018D00268526802F07F020A70816A01F1D6
:1055000001018162C18DA1F101010904090CC1856C
:105510000BD024E002685268C2F308020A80816A54
:10552000891CEEE702685268E7E70168CA6822F062
:105530002002CA600168CA6822F48072CA600168E9
:105540004A6922F001024A61202180F83E10016B75
:10555000012904BF0021016303D0FEF7CBFB00202B
:1055600008BD016801F10C0252E8001F21F0100192
:1055700042E80013002BF4D101680A6812F0100F02
:1055800002D00A6849680091818DFEF745F9E6E787
:1055900070B5044600680169E26821F44051114386
:1055A00001612169A068E26908436169114301430F
:1055B0002068C26822F4037222F414421143C160CD
:1055C00020684169A26921F440711143416120685A
:1055D000A0F18041B1F588311CBFA0F18041B1F547
:1055E0008A3128D0FDF7A0F8E2690023192132267C
:1055F000B2F5004F214D626820D0A0FB0101930F4E
:105600009200FAF7DDFD0146A5FB012040096FF08D
:105610001802424301EB820106EB0111A5FB0121B7
:10562000490901F0F00202EB001001F00F010844FB
:105630002168886070BDFDF787F8D5E7A0FB010100
:1056400092185B41FAF7BCFD0146A5FB0120420917
:1056500008466FF01801514300EB810006EBC000D3
:10566000A5FB00101301400900F0F80103EB410114
:1056700000F0070008442168886070BD1F85EB5169
:1056800038B58162828500251346044605642220D0
:1056900084F83E00A26B1B48D063A26B1A481064CA
:1056A000A26B1A48D064A06B0A4605652068011DEC
:1056B000A06BFBF7CBFF206801684068009084F87E
:1056C0003C5020680C3050E8001F41F4807140E8E5
:1056D0000012002AF5D1206800F1140151E8000FF2
:1056E00040F0010041E80002002AF4D120681430A3
:1056F00050E8001F41F0400140E80012002AF5D1B7
:10570000002038BD1B530008A95300086D52000843
:105710000148FEF73BB900004C3E00202DE9F04760
:10572000064686B0594800240294016841F480017D
:105730000160016801F48001059155490A6842F051
:1057400010020A60096801F010010591016841F03A
:1057500002010160016801F002010591016841F058
:1057600002010160006802254027CDE9007500F0C4
:1057700002004FF00708CDE90480DFF81891694670
:1057800003954846FCF700FD802000906946CDF85F
:1057900010804846CDE90245FCF7F6FC3F4DDFF8A6
:1057A000F8800C20C5F80080C5E90164EC60C5E90B
:1057B0000440AC612846EC61FEF76AFA002818BF85
:1057C000FBF726FD3648374E4FF000694FF4806AEC
:1057D0003060C6E90194C6E9034A74614FF40030B1
:1057E000B461C6E9074030467462FBF781FE0028C9
:1057F00018BFFBF70DFDAE63002211463A20B563DA
:10580000FCF77AFE3A20FCF767FE284E2648C6E9E8
:105810000274C6E904A4B461C6E900094FF48030FB
:10582000C6E9074030467462FBF762FE002818BFE5
:10583000FBF7EEFC6E63002211464620B563FCF7D1
:105840005BFE4620FCF748FE002211462520FCF7AF
:1058500053FE2520FCF740FE1549A1F5527001606A
:105860004FF40071416000F5A9618160C460047467
:105870002968CA6842F01002CA604268016840465E
:10588000FFF7CAFD06B00120BDE8F08730380240BE
:105890004438024000040240001001404C3E002009
:1058A00040640240183F0020B8640240783F002066
:1058B000584100200148FEF769B80000903E0020E2
:1058C0002DE9F047064686B05A4800240294016844
:1058D00041F400110160016801F40011059156497D
:1058E0000A6842F480220A60096801F48021059167
:1058F000016841F002010160016801F002010591B7
:10590000016841F00801016000684FF0070A00F0EB
:105910000800CDE904A04FF480670225CDE90075A9
:105920004FF003096946CDF80C904448FCF72CFC75
:105930004FF40078CDF80080CDE90154CDE9039A09
:1059400069463F48FCF720FC3F4DDFF8F8A00C20EB
:10595000C5F800A0C5E90164EC60C5E90440AC618C
:105960002846EC61FEF794F9002818BFFBF750FCBD
:105970003648374E4FF000693060C6E90194C6E9F9
:10598000034774614FF40030B461C6E90740304604
:105990007462FBF7ADFD002818BFFBF739FCAE635E
:1059A000002211460C20B563FCF7A6FD0C20FCF785
:1059B00093FD294E2748C6E900094020C6E90204A4
:1059C000C6E904748002B461C6E9074030467462D7
:1059D000FBF78EFD002818BFFBF71AFC6E63002250
:1059E00011460E20B563FCF787FD0E20FCF774FD11
:1059F000002211462720FCF77FFD2720FCF76CFDD5
:105A00001649A1F5E9604161C0F8188000F6481117
:105A1000C161046280F824402968CA6842F010021B
:105A2000CA60826941695046FFF7F6FC06B0012062
:105A3000BDE8F087303802404038024000040240A0
:105A4000000C024000480040903E002028600240C8
:105A5000D83F0020586002403840002058450020C0
:105A60002DE9F043054687B05748002402940168A9
:105A700041F400110160016801F4001105915349DE
:105A80000A6842F480120A60096801F480110591E5
:105A9000016841F004010160016801F00401059111
:105AA000016841F0080101600068022600F008006A
:105AB00005904FF48050CDE9000603274FF0080809
:105AC000CDE9037869464248FCF75EFB0420CDE946
:105AD0000006CDE902476946CDF810803D48FCF745
