:020000040800F2
:10000000787601205D0200083D3B00085F32000861
:10001000813800081F090008F1590008000000009D
:100020000000000000000000000000009D0100082A
:10003000550B000800000000F90100080D480008F9
:1000400077020008770200087702000877020008AC
:100050007702000877020008510D000877020008B7
:100060007702000877020008770200089909000863
:10007000770200087702000877020008770200087C
:10008000770200087702000877020008770200086C
:10009000770200087702000877020008770200085C
:1000A00077020008D54800087702000877020008A8
:1000B000E148000879490008294A00087702000849
:1000C000770200087702000877020008770200082C
:1000D00077020008A9550008770200084157000878
:1000E000770200087702000877020008770200080C
:1000F0007702000877020008CD4B0008A509000828
:1001000077020008770200087702000877020008EB
:1001100077020008C150000877020008554B00081C
:100120007702000877020008B1090008770200088A
:1001300077020008210C0008770200087702000807
:1001400077020008770200087702000877020008AB
:100150007702000877020008BD090008770200084E
:10016000770200087702000877020008770200088B
:1001700077020008770200087702000800000000FC
:100180007702000877020008DFF80CD000F052FB7D
:1001900000480047F38C0008787601202C4B196842
:1001A0000868B0E8F04F80F30988BFF36F8F4FF015
:1001B000000080F3118870470000000008480068C4
:1001C000006880F308884FF0000080F3148862B65E
:1001D00061B6BFF34F8FBFF36F8F00DF00BF00BF6B
:1001E00008ED00E0DFF80C00016841F470010160E7
:1001F000704700BF88ED00E0EFF30980BFF36F8F19
:10020000134B1A681EF0100F08BF20ED108A20E96A
:10021000F04F106009B44FF0500080F31188BFF325
:100220004F8FBFF36F8F12F0E1FB4FF0000080F3B0
:10023000118809BC19680868B0E8F04F1EF0100F6B
:1002400008BFB0EC108A80F30988BFF36F8F704746
:100250004C000020EFF305807047000006488047FF
:1002600006480047FEE7FEE7FEE7FEE7FEE7FEE79B
:10027000FEE7FEE7FEE7FEE7C54800088901000843
:100280002DE9F05F0546002092469B4688460646CB
:10029000814640241BE0284641464746224600F05E
:1002A000D3F953465A46C01A914110D31146184605
:1002B000224600F0BAF92D1A67EB01084F46224694
:1002C0000120002100F0B1F917EB00094E41201E7A
:1002D000A4F10104DFDC484631462A464346BDE826
:1002E000F09F00000649074A0868504343F239026C
:1002F00010440860400870470149086070470000DA
:10030000380900206D4EC64110B5431A934209D2F8
:100310008318881803E010F8011D03F8011D521E10
:10032000F9D210BD40EA01039B0703D009E008C9D8
:10033000121F08C0042AFAD203E011F8013B00F8AA
:10034000013B521EF9D210BDD2B201E000F8012BE0
:10035000491EFBD270470022F6E710B513460A4645
:1003600004461946FFF7F0FF204610BD30B504469D
:100370000020034600E05B1C934203D2E05CCD5CAE
:10038000401BF8D030BD2DE9FE4F81EA030404F094
:10039000004421F0004100944FF0000B23F0004393
:1003A00050EA01045ED052EA03045BD0C3F30A545E
:1003B000C1F30A552C44A4F2F3340194A0FB025477
:1003C000C1F3130141F48011C3F3130343F4801309
:1003D00001FB024400FB034E840A970A44EA81545D
:1003E00047EA8357A4FB076802958D0A05FB07853A
:1003F0004FEA932C04FB0C542705029D4FEA065844
:1004000047EA1637B5EB08056EEB070C870E920E20
:1004100047EA811742EA8312A7FB0201B6EB0B0100
:1004200064EB00042B0D43EA0C335E1844EB1C50C4
:10043000DA465146E7FB0201C5F313044FEA0B33DA
:1004400043EA14534FEA0432019C43EA0603A4F141
:100450000C040294009CCDE900B400F04BF903B009
:10046000BDE8F08F00200146F9E72DE9F04D81EA63
:10047000030404F0004B21F0004514464FF0000A3D
:1004800023F0004150EA050220D054EA01021DD0B9
:10049000C5F30A570246C5F31303C1F31300C1F3B2
:1004A0000A5640F4801543F48013A7EB0608101B8E
:1004B000D64608F2FD3873EB050002D308F10108B7
:1004C00001E092185B41B8F1000F03DA0020014609
:1004D000BDE8F08D00204FF48011064684460EE002
:1004E000171B73EB050705D3121B63EB05030643CC
:1004F0004CEA010C49084FEA300092185B4150EA7F
:100500000107EDD152EA030012D082EA040083EA27
:100510000501084305D0101BAB4106D20122002380
:1005200006E000224FF0004302E06FF0010253109A
:100530001AEB06004CEB085110EB0A0041EB0B01E3
:10054000BDE8F04D00F0C7B80EB540F2334102915E
:100550000021CDE900110A460B4600F0CBF803B0AC
:1005600000BD70B5C1F30A5201F000450024C1F38B
:10057000130140F2FF3341F480119A4201DA002066
:1005800070BD40F233439A42A2F2334203DC52423E
:1005900000F05AF800E090402C43F1D0404270BD8A
:1005A00000F0004230F000400AD0C10D01F560714A
:1005B000C0F3160042EA0151C208400711437047D8
:1005C00000200146704701F0004330B421F00041A3
:1005D00050EA010206D00A0DA2F56072C1F31301C0
:1005E000002A02DC30BC00207047440F44EAC104FA
:1005F000C100E01830BC00EBC25000F035B830B597
:100600000B46014600202022012409E021FA02F5D0
:100610009D4205D303FA02F5491B04FA02F528446A
:10062000151EA2F10102F1DC30BD202A04DB203AC4
:1006300000FA02F1002070479140C2F1200320FA35
:1006400003F3194390407047202A04DB203A21FA33
:1006500002F00021704721FA02F3D040C2F12002DB
:1006600091400843194670470029A8BF7047401CB5
:10067000490008BF20F00100704710B4B0FA80FCB8
:1006800000FA0CF050EA010404BF10BC704749B1F5
:10069000CCF1200421FA04F411FA0CF118BF012165
:1006A00021430843A3EB0C01CB1D4FEA00614FEA45
:1006B000102042BF002010BC704700EBC350104414
:1006C0000029A4BF10BC7047401C490008BF20F09F
:1006D000010010BC704710B5141E73F1000408DA55
:1006E000401C41F1000192185B411A4301D120F0F6
:1006F000010010BD2DE9F04D92469B4611B1B1FAB3
:1007000081F202E0B0FA80F220329046FFF78DFFCE
:1007100004460F4640EA0A0041EA0B0153465A4696
:10072000084313D0114653EA010019D0C8F1400222
:100730005046FFF789FF05460E4650465946424649
:10074000FFF773FF084305D0012004E02046394637
:10075000BDE8F08D0020054346EAE0762C433743A0
:100760000A986305E40AA0EB08000022FD0A44EAA7
:1007700047540A3002D500200146E9E70105101967
:100780006941DDE9084500196941BDE8F04DA2E77E
:100790002DE9F04D00231A461B1A8A4103DB002085
:1007A0000146BDE8F08DC1F30A52C1F3130141F4D3
:1007B00080154FF0000BD10702D100186D41521E79
:1007C0000027044640F2FF11384601EB620A3E461C
:1007D0008046024600204FF48011FFF735FFC21912
:1007E0007141BB1846EB0100B4EB030C75EB000C38
:1007F00004D3E41A65EB000517460E46241908F1E8
:1008000001006D4180463428E3DDF91946EB06000E
:10081000091BA84103D24FF0FF32134601E000222A
:1008200013461BEB070046EB0A51BDE8F04DFFF7FE
:1008300052BF0000064C074D06E0E06840F001039F
:1008400094E8070098471034AC42F6D3FFF7A0FCB9
:1008500094450108B445010870B58C1810F8015B87
:1008600015F0070301D110F8013B2A1106D110F849
:10087000012B03E010F8016B01F8016B5B1EF9D14D
:100880002B0705D40023521E0DD401F8013BFAE7D3
:1008900010F8013BCB1A921C03E013F8015B01F83E
:1008A000015B521EF9D5A142D8D3002070BD10B50E
:1008B00040F2E7342146532004F018F84721601035
:1008C00004F060F840F2D561532004F0B3F84FF61D
:1008D000FF7140F2473004F0F9F82146BDE81040BE
:1008E000532004F03DB90000014908607047000042
:1008F0000C09002001490861704700000C09002024
:1009000030B1012807D0022808D1084604F0A8BF5A
:10091000084604F04FBE084604F030BF7047FEE7BB
:100920002DE9F041816842680023897A117181685C
:100930000422C97A02EBD101426851718168012217
:100940000A25C97A02EBD10241680A7281680C89D2
:10095000C97A64BA05EBD10164B104210AA00EE0A2
:10096000E65C03F1090547685B1C521E7E55DBB24D
:10097000D2B200E0064C002AF2D10648406811F0DD
:1009800055FC0020BDE8F0814141414100000000DC
:1009900064FF0020E0050020014800F0B3BA000029
:1009A000A0240120014800F0ADBA0000002501207C
:1009B000014800F0A7BA0000E0230120014800F040
:1009C000A1BA00004024012001681823CAB2103ADD
:1009D000B2FBF3F2054B6FF30901032A9B5CC3657D
:1009E00000D9091D8165084670470000D440010800
:1009F00010B5014600208B698A6A4FF0C07453B16C
:100A0000B3F5005F15D072B1012A0CD0022A0AD0CA
:100A1000032A09D104E01AB1012A06D0022A03D11F
:100A2000C96AC90100D5012010BDC96AA142FAD026
:100A300010BD002AF7D0012AF2D0022AF3D0032AEF
:100A4000F3D010BD30B50468256825F480252560F5
:100A5000046863608368402B036803D09960006872
:100A6000C26030BD9A600068C16030BD70B58268F8
:100A7000436812781A708268436852785A708268A4
:100A8000436892789A7082684368D278DA704268D4
:100A90000123937182684468D279E27185682C4C95
:100AA000EA79012A0ED0022A0ED0032A0ED0042A97
:100AB00010D0052A10D0062A10D00F2A10D0102AE4
:100AC00010D011E001210FE002210DE022785AB987
:100AD000032109E0042107E0052105E0062102E0E9
:100AE0000F2101E010212370AA79012A18D10529CC
:100AF00023D00BDC012914D0022916D0032918D0E9
:100B000004290DD1BDE8704002F01ABC0025062969
:100B100017D00F2918D0102902D102F0ABFF257091
:100B200070BDBDE87040FFF7FBBEBDE8704000F04F
:100B300013B8BDE8704002F093BBBDE8704003F00D
:100B4000B1BD02F06BFFEAE7BDE8704002F010BFF4
:100B500098010020704700002DE9F041816842684B
:100B60000023897A117181680422C97A02EBD101CC
:100B700042685171816801220A25C97A02EBD102CB
:100B800041680A7281680C89C97A64BA05EBD1019F
:100B900064B104210AA00EE0E65C03F10905476890
:100BA0005B1C521E7E55DBB2D2B200E0064C002A1E
:100BB000F2D10648406811F039FB0020BDE8F08111
:100BC0004141414100000000A0010020E00500205B
:100BD000064908B509684FF4FA52B1FBF2F14143F6
:100BE000009100BF491E0091FBD208BD48000020C3
:100BF00038B50446006800F58050816941F48011E1
:100C00008161206800F58050806900900120FFF725
:100C1000DFFF2068009900F58050816138BD000039
:100C2000014800F046BC0000E43900202DE9F04105
:100C3000044621B14FF40060E060C000A060E069AC
:100C40000025002861D028462368402619683A4AC2
:100C50001140D4E902273A43024342F400700843AA
:100C6000186020680768012000F0BEFA206807605D
:100C70002068466020684668012000F0B5FA2068C8
:100C80004660206885602068C560216888694FF6E5
:100C90004172104040F08000886120688669012020
:100CA00000F0A2FA206886612068C5612068C569E5
:100CB000012000F099FA2068C561226802F580528F
:100CC00090691E4908401E4901439161206800F562
:100CD00080508569012000F087FA206800F5805077
:100CE00085612068174900F580500160206800F593
:100CF00080500568012000F077FA206800F58050E8
:100D00000560A069012803D009E04FF480609BE7EB
:100D1000206800F58050C1690B4A1143C1616069C8
:100D20000A4982880A640278D0F8010042EA002069
:100D30004864BDE8F08100000F8120FF233FDEF80A
:100D4000040020028020C102400001000080024017
:100D5000012000F025BF000000B585B014216846D1
:100D6000FFF7F9FA012000904FF48810019002205B
:100D700002906946064800F01FFF00221146062037
:100D800001F0E4F8062001F0D3F805B000BD000042
:100D90000000024011F0CABB30B40F4B0F490020D5
:100DA00001EB800453F82020401C150C2582C0B2B2
:100DB00062820828F4D3B1F8700002280AD10849E9
:100DC00000200822A1F8700006480349006830BCE2
:100DD00005F004BD30BC7047E0200120C82101208F
:100DE000A4FF00202C09002072B6FEE711F0BEBB64
:100DF000014801F01EB800006836012030B51346E6
:100E00001CE0502484F31188BFF34F8FBFF36F8F22
:100E1000C4888588AC4215D0C5880468645DC588DF
:100E20006D1CC580C588B5F5847F01D90025C580B6
:100E300001F8014B002484F31188521E002AE0D1EE
:100E4000981A30BD002080F31188F9E72DE9F041B0
:100E50000446876D00F0BAFF064694F83500002579
:100E6000022806D08020606584F834500120BDE857
:100E7000F0812068016821F0160101602068416955
:100E800021F080014161206C08B9A06C20B120687C
:100E9000016821F0080101602068016821F001016A
:100EA00001600CE000F092FF801B052807D920208C
:100EB0006065032084F8350084F83450D7E7206853
:100EC0000068C007EED194F85C103F208840B860FD
:100ED000012084F8350084F834500020C7E790F8EA
:100EE0003510022903D0802141650120704705217A
:100EF00080F835100068016821F0010101600020D0
:100F0000704700002DE9F84304464FF00009CDF882
:100F1000009063484FF41651A56D0068B0FBF1F7DF
:100F20002E6894F85C10082000FA01F131420FD0CD
:100F300021680A6852070BD50A6822F004020A6089
:100F400094F85C108840A860606D40F00100606516
:100F500094F85C104FF0010808FA01F0304208D014
:100F600021684969090604D5A860606D40F0020057
:100F7000606594F85C1004208840304208D02168F5
:100F80000968890704D5A860606D40F004006065B9
:100F900094F85C1010208840304218D0216809680D
:100FA000090714D5A86020680168490304D50068C2
:100FB000000308D5A16C07E00168C90503D40168E6
:100FC00021F008010160216C09B12046884794F89E
:100FD0005C1020208840304231D021680968C90661
:100FE0002DD5A86094F8350005282068016806D042
:100FF000490347D5006800031DD4616C1CE021F053
:10100000160101602068416921F080014161206C76
:1010100008B9A06C20B12068016821F008010160C6
:1010200094F85C103F208840A86084F8358084F8EC
:101030003490216D1FE0E16B09B120468847606D57
:1010400000282BD0606DC00714D0052084F835002F
:101050002068016821F0010101600098401C0090A7
:10106000B84203D820680068C007F6D184F83580FC
:1010700084F83490E16C002910D001B02046BDE81E
:10108000F04308470168C905D5D4016821F0100173
:10109000016084F8358084F83490CCE7BDE8F883AB
:1010A000480000202DE9F041044600F08FFE06467E
:1010B0005CB1022084F83500002584F834502068A3
:1010C000016821F0010101600DE00120BDE8F0811F
:1010D00000F07CFE801B052805D9202060650320D8
:1010E00084F83500F2E720680068C007F0D1226874
:1010F000116820480140D4E901031843D4E90336BC
:101100003343184363691843A3691843E3691843D9
:10111000236A18430843616A042903D1D4E90B13F5
:1011200019430843106020684069666A20F007018F
:1011300030460E43012704280CD1A06A0643E06A1A
:1011400040B12046FFF754FC20B14020606584F890
:101150003570BAE7206846612046FFF735FC94F801
:101160005C203F2191408160656584F835700020E6
:10117000ACE700003F8010F02DE9F0410446866D99
:1011800090F83400002501280DD0012084F83400A7
:1011900094F835700020012F07D084F83400022520
:1011A0002846BDE8F0810220FBE7022784F835706D
:1011B00060652046FFF746FC94F85C103F208840AD
:1011C000B0602068016841F016010160206C20B118
:1011D0002068016841F0080101602068016841F061
:1011E00001010160DCE7000070B5044600F0EEFD8F
:1011F0000546601C02D004480078044400F0E6FD77
:10120000401BA042FAD370BD3C0000202DE9F04104
:10121000054690F845000C46012875D0012685F852
:101220004560022085F84400002C70D02A681168BF
:1012300041480140D4E900031843D4E902373B4355
:101240001843AB6818432369184363691843EB6874
:101250001843A3691843E3691843236A1843636A70
:101260001843A36A184308431060286807680120E0
:10127000FFF7BAFF28680760D4E90B010843D4E9F7
:101280000D1211430843E16B0843216C0843616C64
:101290000843A16C08432968486028684768012012
:1012A000FFF7A2FF286847602968E06C886029681A
:1012B000206DC8602A6891694FF641700140D4E9F9
:1012C00016031843B4F85470236E43EA07431843D7
:1012D000636E1843A36E18430843906128688769BA
:1012E0000120FFF781FF28688761D4E91B010843CB
:1012F0002968C8612868C4690120FFF775FF28685C
:10130000C46114E000E002E00220BDE8F081296839
:10131000086820F49042D5E902031843104308609E
:10132000286804680120FFF75FFF2868046005F85B
:10133000446F00206870E8E70F8120FF2DE9F0433B
:1013400090F845400025012C0DD04FF0010C80F89D
:1013500045C0022480F8444044F2F4574FF000495D
:101360005E1E816217E00220BDE8F08301EB4514A8
:10137000C4F80090C5EBC51808EB480802EB8808D4
:10138000C4E90178B54204D204F12008C4F80C8005
:1013900000E0E1606D1C9D42E8D3026802F58052D6
:1013A000D16080F844C0002180F845100846DBE792
:1013B0002DE9F043914690F845200024012A0AD0F7
:1013C000012680F84560022280F844204FF4801CFA
:1013D0005D1EC1621BE00220BDE8F08301EB4412F8
:1013E000C2F800C0C4EBC41707EB470809EB880735
:1013F0009760C7691FB9176847F440071760AC4288
:1014000003D202F12007D76000E0D160641C9C4247
:10141000E4D3026802F58052116180F84460002133
:1014200080F845100846D7E7704730B590F845106A
:101430000023012908D0012280F84520022180F8EC
:1014400044100024816A1AE0022030BD0D685B1C44
:10145000C5F30125022D0AD00D6815F4407F09D08F
:101460004163836B5B1C8363012B12D012E08263A8
:10147000016302E0856B6D1C8563C96881620D683C
:10148000002D01DB042BE1D300F8442F4470012030
:1014900030BD01630B68C3F30D431B1FC363036BB4
:1014A0009B680364C96840F8281F027744770020CE
:1014B00030BD70B50446006800F5805041694FF0BA
:1014C000000549064FF0010608D5204600F0F4F962
:1014D0002068402100F58050416109E04069C00763
:1014E0000AD0204600F0F6FA206800F580504661E8
:1014F00084F8446084F8455020684FF4803100F54A
:1015000080504161206800F58050406900040CD58E
:101510002046FFF789FF20684FF4004100F5805016
:10152000416184F8446084F8455070BD2DE9FC4762
:101530004FF000060400B146009603D094F8440032
:1015400018B107E00120BDE8FC8784F8456020461B
:1015500000F0E2F86648016841F4804101600068EB
:1015600000F4804001906348016821F400010160AB
:101570000168226A11430160206800F5805001680B
:1015800041F00101016000F021FC05464FF4FA77BB
:1015900009E000BF00F01AFC401BB84203D9032049
:1015A00004F8440F67E0206800F580500068C00729
:1015B000F0D12068006920F01C0500F0B3FD4E4911
:1015C0004E4A0144914202D245F0080516E04C49CA
:1015D0004C4A0144914202D245F00C050EE04A49C2
:1015E0004A4A0144914209D3494908444949884239
:1015F00002D245F0040501E045F0100520680561C0
:101600004FF400420021204600F066FA0125A8BBF5
:10161000FF20FFF7E9FD606888B300F0D7FB804644
:1016200041F288376A460121204600F003F900F0B4
:10163000CDFBA0EB0800B84217D800984007F1D5C1
:101640004FF480520021204600F046FAB0B900F075
:10165000BDFB80466A460121204600F0EBF800F011
:10166000B5FBA0EB0800B8420AD901212046FFF7DC
:10167000DDFA04F8445F0320667064E724E018E0B4
:1016800000988006E6D56A461F21204600F0D2F871
:10169000D0B90098C10603D54FF40061E16000E0C5
:1016A000E660400701D5A66019E04FF48040A060D5
:1016B00015E0E068A168C00840EA510082B200214C
:1016C000204600F009FA30B101212046FFF7AEFABA
:1016D00084F8445036E740F6FF70FFF785FD494631
:1016E0002046FFF7A3FA84F8445000202BE70000BF
:1016F000443802400438014000D3CEFEC0E1E4008B
:1017000040F1E9FD40787D0100796CFC005A6202ED
:10171000001F0AFA80F0FA02F0B587B004461421DF
:101720006846FEF718FE3D492068884273D13C4860
:101730000024016841F000710160016801F000714E
:101740000591016841F080610160016801F08061EC
:101750000591016841F000610160016801F00061DC
:101760000591016841F004010160016801F0040184
:101770000591016841F001010160016801F001017A
:101780000591016841F002010160016801F0020168
:101790000591016841F0400101600068214E00F0B0
:1017A0004000059001220421304600F00AFB04208D
:1017B000009001AA0120022582E8310069463046E6
:1017C00000F0FAF93220CDE9000502AA03260B2722
:1017D00082E8D0006946144800F0EEF98620CDE991
:1017E000000502AA694682E8D000104800F0E4F93A
:1017F0004FF4D040CDE9000502AA694682E8D00046
:101800000B4800F0D9F9002205213D2000F09EFB95
:101810003D2000F08DFB07B0F0BD000000800240CD
:10182000303802400004024000080240000002403C
:10183000001802402DE9F047044690F84400914614
:1018400082281DD0822084F84400226810694FF657
:10185000FF7500F01C03208A05EAC02018434FF4EE
:10186000F86303EA8111014321F0020040F0010511
:10187000156100F0ABFA064601274FF4803810E0FE
:101880000220BDE8F08700BF00F0A0FA801B4045B1
:1018900005D304F8447F002060700320F1E720683E
:1018A0000569E807F0D12068406981B2C9F80010E5
:1018B00084F844700020E4E70148006808F0BCBBED
:1018C00014000020F8B5044690F84500012839D0EE
:1018D000012584F84550022084F844002068002641
:1018E000016841F008010160206800680090284606
:1018F000FFF76EF92168009808602068016841F0E0
:10190000040101602068006800900120FFF760F981
:101910002168009808602046FFF76AF9206800F502
:101920008050816941F400518161206800F5805048
:10193000816941F00201816184F8445084F8456076
:101940000020F8BD0220F8BDF8B5044690F8450027
:10195000012839D0012584F84550022084F844003C
:10196000206800F58050816921F400518161206870
:1019700000F58050816921F0020181612068002614
:10198000016821F0040101602068006800900120D6
:10199000FFF71EF92168009808602046FFF728F934
:1019A0002068016821F0080101602068006800904B
:1019B0000120FFF70DF921680098086084F8445071
:1019C00084F845600020F8BD0220F8BDF0B590F81D
:1019D00045200023012A11D0012780F845700222FA
:1019E00080F84420002459B1C66A3268002A0ADA15
:1019F000122100F8441F44700120F0BD0220F0BD08
:101A000000F8447FF7E740F2F455A9420BD9B1FB47
:101A1000F5FCB1FBF5F205FB1C1CBCF1000F00D07E
:101A2000521C012A43D1326842F040523260C26AED
:101A3000C1F30C015160C16A0A6842F000420A60B9
:101A4000C16AC968C16234E0D6F800C02CF0405CBD
:101A5000C6F800C033B9C66AD6F800C04CF0805C46
:101A6000C6F800C0C66A7560561EB34214D1C66A75
:101A7000D6F800C04CF0005CC6F800C0C2F1010608
:101A8000C6EBC61606EB4606D0F82CC001EB860660
:101A9000C6F30C06CCF80460C66AD6F800C04CF059
:101AA000004CC6F800C0C66A5B1CF668C66293426A
:101AB000CAD3016801F580514A69520705D504224D
:101AC0004A61016801F580514C6000F8447F447020
:101AD0000020F0BD704700002DE9F041044690F869
:101AE000440042281ED0422084F84400236818692C
:101AF0004FF6FF7600F01C05208A06EAC020284336
:101B00004FF4F86505EA8111014390B241F00305F5
:101B100058612068056100F059F9064601274FF425
:101B2000803810E00220BDE8F08100BF00F04EF9DF
:101B3000801B404505D304F8447F002060700320DB
:101B4000F1E720680569E807F0D184F84470EAE716
:101B500070B50F4D0F4E0124012804D002280CD07F
:101B600004280ED010E001210B4800F01DF910B13F
:101B70002C71346070BDEC70FBE7022030606C703B
:101B800002E004203060AC7004490020087070BD91
:101B900020090020143C0140001802409835012023
:101BA000044910B50A68024202D00860FFF7D0FF6E
:101BB00010BD0000143C01402DE9F84FDFF8BCA136
:101BC000002201250AF1040B03264FF00F090BF147
:101BD000040E00BF0B6805FA02F42340A34270D143
:101BE0000F7907F00307012F01D0022F16D1876864
:101BF0004FEA420806FA08FC27EA0C07D1F80CC0A5
:101C00000CFA08FC4CEA070CC0F808C04768A74368
:101C10000C79C4F3001494403C4344600C79E443D1
:101C2000A4070AD0C4684FEA420C06FA0CF7BC437A
:101C30008F6807FA0CF72743C7600C7904F0030498
:101C4000022C12D1D40800EB840CDCF8204057079A
:101C5000FF0E09FA07F824EA0804D1F8108008FA00
:101C600007F848EA0408CCF8208004684FEA420CE0
:101C700006FA0CF7BC430F7907F0030707FA0CF7D5
:101C8000274307604C6814F4403F70D03C4C2768F1
:101C900047F480472760246822F0030704F4804457
:101CA0000094384C07EB040CDCF8084897074FEA1F
:101CB000177809FA08F7BC43334FB84202D100271E
:101CC00024E054E0314FB84201D101271EE0304FEB
:101CD000B84201D1022719E02E4FB84201D10327A3
:101CE00014E02D4FB84201D104270FE02B4FB8422A
:101CF00001D105270AE02A4FB84201D1062705E0A5
:101D0000284FB84201D1072700E0082707FA08F753
:101D10002743CCF80878DAF800405746D1F804C0D9
:101D20009C435FEACC3C00D51C433C60DBF80040A0
:101D30005F46D1F804C09C435FEA8C3C00D51C434D
:101D40003C60DEF800407746D1F804C09C435FEA6F
:101D5000CC2C00D51C433C60084F0C373C68D1F8B4
:101D600004C09C435FEA8C2C00D51C433C60521C91
:101D7000102AFFF42FAFBDE8F88F0000003C0140AF
:101D8000443802400030014000000240000402409C
:101D900000080240000C0240001002400014024003
:101DA00000180240001C02400069084000D00120D9
:101DB0007047426921EA02030A4043EA0241816115
:101DC00070470AB1816170470904FBE701488068E8
:101DD000704700003C00002070B5040011D021685D
:101DE0004CF6CC400860216845F255500860D4E9B3
:101DF000000141602168A0688860FFF7E7FF0546A1
:101E00000DE0012070BD00BFFFF7E0FF401B31284F
:101E100005D92068C068800701D0032070BD206804
:101E2000C0688007F0D121684AF6AA200860002027
:101E300070BD00684AF6AA210160002070470000CA
:101E40000248816802781144816070473C0000209C
:101E50000B4810B5016841F400710160016841F45C
:101E600080610160016841F480710160032000F02D
:101E70008DF80F2000F006F800F03EF8002010BDAD
:101E8000003C024010B5014688B00022192000F045
:101E90005DF8192000F04CF813480024016841F067
:101EA00001010160006805A900F001000690684684
:101EB00000F018F900F04CF90C494000B0FBF1F1CA
:101EC0000C480B4A491E026040F2E732C0E9032485
:101ED000C0E9011400F07EFB10B1012008B010BD74
:101EE000044800F0FDFBF9E74438024040420F008F
:101EF00000000140603101200C4882B0016841F4CB
:101F000080410160006800F4804000900748001F95
:101F1000016841F0805101600068002200F08050AB
:101F200000900F21901E02B000F010B8443802401B
:101F3000002809DB00F01F020121914040098000C8
:101F400000F1E020C0F8001170470000F0B40E4B23
:101F50001B680C46C3F30223C3F10705042D00D907
:101F60000425191D072901D2002300E0DB1E0126EC
:101F700006FA05F1491E214099409E40761E164002
:101F80003143F0BC03F05EBD0CED00E0064900F00B
:101F9000070208684FF6FF03184040EA0220034A90
:101FA00010430860704700000CED00E00000FA05E7
:101FB0002DE9F0470E46050065D0DFF81481D8F80A
:101FC0000000F7B200F00700B04207D288F80070B6
:101FD000D8F8000000F00700B04254D128683D4C0A
:101FE000810712D5400703D5206840F4E0502060F7
:101FF0002878000703D5206840F4604020602068FE
:10200000A96820F0F000084320602878C0072DD090
:10201000304968680839012812D0022813D00328F3
:1020200011D00968890700292DDA216821F0030100
:1020300001432160FFF7CAFE814641F2883A0EE073
:1020400009688903EFE709688901ECE7FFF7BEFE3D
:10205000A0EB0901514502D90320BDE8F0872068B3
:10206000696800F00C00B0EB810FEFD1D8F80010D8
:10207000404601F00701B14207D90770006800F03F
:102080000700B04201D00120E7E72878400705D5D6
:102090002068E96820F4E0500843206028780007B1
:1020A00006D52068296920F4604040EAC10020601C
:1020B00000F05EF82168084AC1F30311515CC84082
:1020C0000649086006480068FFF7DCFE0020C4E708
:1020D000003C024008380240DC4001084800002073
:1020E000400000200F2202600C4A136803F0030333
:1020F0004360136803F0F0038360136803F4E05354
:10210000C36012684FF4E05303EAD202026104484C
:10211000006800F0070008607047000008380240BF
:10212000003C024001480068704700004800002061
:102130000448054900680968044AC1F38221515CDA
:10214000C84070474800002008380240EC400108B1
:102150000448054900680968044AC1F34231515CEA
:10216000C84070474800002008380240EC40010891
:10217000154810B5006810F00C02144813D0411037
:10218000042A0FD0082A0ED10F4C241F226823687E
:1021900002F03F025B0207D52068C0F38810A0FB65
:1021A000010106E0084610BD2168C1F38811A1FBBA
:1021B00000010023FEF764F82168C1F30141491CC6
:1021C0004900B0FBF1F010BD083802400024F400D3
:1021D0002DE9F84F04006ED02078DFF84C93C0074B
:1021E000A9F104054AD009F104000168C1F3810195
:1021F000012908D00068C0F3810002280AD1D9F86B
:102200000000400206D52868800337D560680028A2
:10221000E1D033E06068B0F5803F10D0B0F5A02F7A
:10222000286810D020F480302860286820F48020AE
:1022300028606068A8B1FFF7C9FD06460DE0286870
:1022400040F48030F4E740F480202860F7E700BFD6
:10225000FFF7BCFD801B642873D828688003F7D57E
:102260000CE0FFF7B3FD064605E000BFFFF7AEFD4B
:10227000801B6428F0D828688003F7D42078DFF822
:10228000AC8280074FF0000A3ED5A748001D0168C8
:1022900011F00C0F08D00068C0F3810002280BD1A8
:1022A000D9F80000400207D42868800716D5E068F6
:1022B000012800D112E033E1E068B8B10120C8F88C
:1022C0000000FFF783FD064605E000BFFFF77EFD37
:1022D000801B0228C0D828688007F7D528682169A4
:1022E00020F0F80040EAC10028600DE0C8F800A026
:1022F000FFF76CFD064604E0FFF768FD801B02282F
:102300001FD828688007F7D42078000722D5864F89
:1023100087486169703771B101210160FFF756FD8F
:10232000064604E0FFF752FD801B022809D83868F2
:102330008007F7D50EE0C0F800A0FFF747FD06467E
:1023400005E082E0FFF742FD801B02287DD8386857
:102350008007F7D42078400768D5DFF8CCB1002794
:102360000BF13C0BDBF80000C0000BD4DBF80010D5
:1023700041F08051CBF80010DBF80000012700F09D
:10238000805000906B4E3068C00510D4306840F427
:1023900080703060FFF71AFD009005E0FFF716FD32
:1023A0000099401A022850D83068C005F6D55E4E14
:1023B000A0686C3601280FD00528306810D020F0B6
:1023C00001003060306820F004003060A068B8B1CF
:1023D000FFF7FCFC00900FE0306840F00100F4E7EC
:1023E00040F004003060F7E7FFF7F0FC0099411A75
:1023F00041F28830814266D830688007F4D50EE01B
:10240000FFF7E4FC009007E0FFF7E0FC0099411AB9
:1024100041F28830814256D830688007F4D42FB119
:10242000DBF8001021F08051CBF80010A069C8B390
:102430003D49091D0968C1F3810102294AD00228DA
:10244000504607D0C8F8600000E03CE0FFF7BEFC53
:1024500004463BE04746C8F86000FFF7B7FC064675
:1024600005E000BFFFF7B2FC801B02282BD82868CC
:102470008001F7D4D4E907010843A16A2E4A49082C
:1024800002EB0141626A41EA8211084394F82C1080
:1024900040EA0161C9F8001001203866FFF796FC98
:1024A000044606E03EE000BFFFF790FC001B022858
:1024B00009D828688001F7D534E000BFFFF786FC13
:1024C000001B022802D90320BDE8F88F286880018C
:1024D000F4D427E00128F7D0D9F80000E26900F42D
:1024E000800191421CD1226A00F03F01914217D134
:1024F00047F6C071626A0140B1EB821F10D1A26A37
:102500004FF0FF3300F4403103EB5202B1EB024FC6
:1025100006D194F82C1000F07060B0EB016F01D080
:102520000120D1E70020CFE70438024000004742F5
:10253000800E4742007000400000FFFF7047704768
:102540007047000070B590F83C20012A32D0012479
:1025500080F83C40022280F83D2003685A689D685C
:1025600022F070060A6832435A60134B02689A429E
:1025700014D0B2F1804F11D0104B9A420ED0104BB4
:102580009A420BD00F4B9A4208D00F4B9A4205D07B
:102590000E4B9A4202D00E4B9A4204D1496825F064
:1025A00080031943916080F83D40002180F83C1081
:1025B000084670BD022070BD0000014000040040CC
:1025C00000080040000C00400004014000400140B1
:1025D0000018004010B5040003D094F83D0010B17D
:1025E0000EE0012010BD002084F83C00204602F0DF
:1025F000F3FCA06C08B91148A06401462046884746
:10260000022084F83D00211D206802F09FFB01207C
:1026100084F8460084F83E0084F83F0084F84000C7
:1026200084F8410084F8420084F8430084F84400B0
:1026300084F8450084F83D00002010BD41260008C4
:1026400008B500680649884208D10648016841F08B
:1026500002010160006800F00200009008BD000067
:10266000000401404438024090F83D10012901D097
:1026700001207047022180F83D100068114988420E
:1026800014D0B0F1804F11D00F4988420ED00F49BD
:1026900088420BD00E49884208D00E49884205D0A6
:1026A0000D49884202D00D49884204D1816801F069
:1026B0000701062903D0016841F0010101600020F3
:1026C0007047000000000140000400400008004086
:1026D000000C004000040140004001400018004090
:1026E00090F83D10012901D001207047022180F8A7
:1026F0003D100168CA6842F00102CA6000681149D1
:10270000884214D0B0F1804F11D00F4988420ED0CA
:102710000E4988420BD00E49884208D00D498842A4
:1027200005D00D49884202D00C49884204D1816805
:1027300001F00701062903D0016841F001010160A1
:1027400000207047000001400004004000080040E5
:10275000000C00400004014000400140001800400F
:1027600070B5044690F83C000025012817D00126DA
:1027700084F83C60022084F83D002068826822F0E2
:10278000770222F47F4282600868502838D00DDC3E
:1027900020284FD005DC90B3102811D14AE0022048
:1027A00070BD302846D040280AD13BE060282FD0A9
:1027B00070280DD0B0F5805F03D0B0F5005F12D067
:1027C000012584F83D60002084F83C00284670BD57
:1027D000CB68D1E90121206802F029FB20688168DB
:1027E00041F0770109E0CB68D1E90121206802F0CE
:1027F0001EFB2068816841F480418160E1E719E0B7
:10280000CA684968206802F01DFC5021206806E073
:10281000CA684968206802F026FC6021206802F03E
:1028200010FBCEE7CA684968206802F00BFC402123
:102830002068F4E7226801461046F0E770477047C9
:10284000704770B50446006801694FF00005C94340
:10285000890717D4C168C943890713D4E91E0161E8
:102860000120207720688069800702D0D4F890107A
:1028700005E0D4F8981020468847D4F89C102046EC
:102880008847257720680169C943490719D4C16879
:10289000C943490715D46FF0040101610220207774
:1028A0002068806910F4407F02D0D4F8901005E0D1
:1028B000D4F8981020468847D4F89C1020468847C2
:1028C000257720680169C943090718D4C168C9433D
:1028D000090714D46FF008010161042020772068F3
:1028E000C069800702D0D4F8901005E0D4F89810A1
:1028F00020468847D4F89C102046884725772068D2
:102900000169C943C90619D4C168C943C90615D4A8
:102910006FF010010161082020772068C06910F471
:10292000407F02D0D4F8901005E0D4F898102046EB
:102930008847D4F89C10204688472577206801698D
:10294000C943C90709D1C168C943C90705D1891E4F
:102950000161D4F880102046884720680169C94386
:1029600009060AD4C168C943090606D46FF080017C
:102970000161D4F8B0102046884720680169C94336
:1029800049060AD4C168C943490606D46FF040011C
:102990000161D4F888102046884720680169C9433E
:1029A00089060CD4C168C943890608D46FF0200198
:1029B00001612046D4F8A810BDE87040084770BDFA
:1029C00010B586B0044614216846FDF7C4FC2268A1
:1029D000144C002314480221A2420ED1026842F096
:1029E000010202600068039100F0010005900802F6
:1029F000CDE9000169460D4810E00D4CA2420FD10F
:102A0000026842F0020202600068039300F00200D4
:102A100005902020CDE9000169460648FFF7CCF873
:102A200006B010BD000001403038024000100240E6
:102A3000000400400004024070B5044690F83C00D9
:102A4000002501280FD0012084F83C006AB1042A37
:102A50000FD0082A11D00C2A13D00125002084F8A9
:102A60003C00284670BD022070BD206802F0F2F9DB
:102A7000F4E7206802F01EFAF0E7206802F050FA4E
:102A8000ECE7206802F080FAE8E7704770B504468A
:102A900090F83C0000260D4601280FD0012084F854
:102AA0003C006AB1042A1DD0082A2FD00C2A3FD03E
:102AB0000126002084F83C00304670BD022070BD25
:102AC000206802F0C7F92068816941F0080181613E
:102AD0002068816921F004018161206881692A6987
:102AE000114311E0206802F0E5F92068816941F4A2
:102AF000006181612068816921F4806181612068C1
:102B000081692A6941EA02218161D2E7206802F0E5
:102B100007FA2068C16941F00801C1612068C169F4
:102B200021F00401C1612068C1692A69114311E0E3
:102B3000206802F029FA2068C16941F40061C1618E
:102B40002068C16921F48061C1612068C1692A6976
:102B500041EA0221C161ACE710B5040003D094F84A
:102B60003D0010B10EE0012010BD002084F83C00B3
:102B7000204602F031FA206E08B91148206601465D
:102B800020468847022084F83D00211D206802F07D
:102B9000DDF8012084F8460084F83E0084F83F0008
:102BA00084F8400084F8410084F8420084F843002F
:102BB00084F8440084F8450084F83D00002010BDEE
:102BC000C52B0008704770477047000010B50446D9
:102BD000022249B104290ED0082913D094F84100EB
:102BE000012816D0012010BD94F83E000128F9D12B
:102BF00084F83E200FE094F83F000128F2D184F8D9
:102C00003F2008E094F840000128EBD184F84020F0
:102C100001E084F841200122206802F0FBF8164907
:102C20002068164A884201D0904203D1436C43F495
:102C3000004343642068884213D0B0F1804F10D025
:102C40000F4988420DD00F4988420AD00E49884268
:102C500007D0904205D00D49884202D00C498842E5
:102C600004D1816801F00701062903D0016841F011
:102C700001010160002010BD00000140000401407E
:102C80000004004000080040000C004000400140EB
:102C90000018004001681448814201D1FFF7D0B804
:102CA000124802681248914201D1006805E00F4ABB
:102CB000B4321268914203D14068002813D0004713
:102CC0000C4A1268914201D18068F6E7094AB43291
:102CD0001268914201D1C068EFE7074A1268914239
:102CE00001D10069E9E7704700000140143201207A
:102CF0000C0900207C330120E43401207047704728
:102D0000704738B5044690F83E00202822D181B1A2
:102D10007AB194F83C0001281CD0012084F83C00D2
:102D20002063204602F0BCFB002803D1216B01295F
:102D300001D0012038BD21680A68496800912168E6
:102D40000C3151E8002F42F0100241E80023002B23
:102D5000F5D138BD022038BD30B404681448154B95
:102D6000421584420ED1D960196899601C6803F538
:102D700046718C4201D101F5007119605A605A68A0
:102D800019680FE00C4884420FD15963996A19639E
:102D90009C6A0A498C4201D101F500719962DA629C
:102DA000DA6A996A30BC02F005BA30BC704700009C
:102DB000001001404822012000500040602D0120F9
:102DC00070477047704710B504460068406994F832
:102DD0003D10C0F3C010212911D180B120681430FA
:102DE00050E8001F21F0800140E80012002AF5D1D0
:102DF000606B08B1FEF72AF8204602F036FA206828
:102E0000406994F83E10C0F38010222911D180B19E
:102E10002068143050E8001F21F0400140E8001203
:102E2000002AF5D1A06B08B1FEF710F8204602F099
:102E3000F5F9002010BD7047F8B501680446086830
:102E4000CA684B6910F00F0F4FF0000556D003F021
:102E5000010602F49077374361D0C10705D0D10550
:102E600003D5216C41F001012164410705D5D90743
:102E700003D0216C41F002012164810705D5D907F7
:102E800003D0216C41F004012164010707D502F051
:102E90002001314303D0216C41F008012164216CF1
:102EA00000293BD0800604D5900602D5204602F0CA
:102EB00011FA20684069216CC0F38010090700D422
:102EC00040B3204602F0AAF92068406940061ED5AA
:102ED0002068143050E8001F21F0400140E8001243
:102EE000002AF5D1A06B90B16C490165A06BFDF78C
:102EF000F6FF002812D0A06B016DCBE083060ED543
:102F000093060CD52046BDE8F84002F0E3B9204610
:102F1000616DBFE0616D204688472564F8BD266B72
:102F20002023012E7BD1C60679D5D60677D5086831
:102F3000486800904869400640D5A16B0868406821
:102F40000004000CEAD0A28D8242E7D9E085C8696E
:102F5000B0F5807F2DD020680C3050E8001F21F4A0
:102F6000807140E80012002AF5D12068143050E842
:102F7000001F21F0010140E80012002AF5D120686D
:102F8000143050E8001F21F0400140E80012002AF0
:102F9000F5D184F83E30256320680C3050E8001FDE
:102FA00021F0100140E80012002AF5D1A06BFDF7D6
:102FB0004DFFA08DE18D401A81B229E0A08DE18DF9
:102FC000401A81B2E08D0028A8D00029A6D0206840
:102FD0000C3050E8002F22F4907240E80026002EBA
:102FE000F5D12068143050E8002F22F0010240E8AB
:102FF0000026002EF5D184F83E30256320680C3081
:1030000050E8002F22F0100240E80023002BF5D1F9
:10301000A26E01B02046BDE8F0401047FFE705066C
:103020002CD515062AD594F83D0021287FF476AFDB
:10303000A068B0F5805F01D12069B0B1206A411C61
:103040002162216800784860E08C401E0004000C7A
:10305000E084EBD12068C16821F08001C160206864
:10306000C16841F04001C160F8BD206A0088C0F32A
:1030700008004860206A801C2062E5E74006F3D51E
:103080005006F1D5CA68204622F04002CA6084F892
:103090003D30A16C01B0BDE8F0400847CD500008BC
:1030A00070B5040004D094F83D00002510B10DE087
:1030B000012070BD84F83C50204602F0E5F8E06E37
:1030C00008B91348E066014620468847242084F862
:1030D0003D002068C16821F40051C160204602F023
:1030E00059F92068016921F4904101612068416922
:1030F00021F02A0141612068C16841F40051C1609A
:103100002564202084F83D0084F83E00002070BD36
:1031100015310008704710B5002372B190F83C409B
:10312000012C10D0012480F83C4090F83D40202C28
:103130000BD090F83D401CB326E0016C41F020011B
:103140000164012010BD022010BD0D291CD2DFE852
:1031500001F007090B0D0F1113151B1B1B25270071
:10316000426416E0826414E0C26412E0026510E07A
:1031700042650EE082650CE0C2650AE0026608E086
:103180000B290BD00C290BD0016C41F020010164FC
:103190000123002180F83C10184610BDC266F8E7F4
:1031A0000267F6E7704770472DE9F843044690F848
:1031B0003D001F4616460D4620284CD1C5B1BEB174
:1031C00094F83C00012846D0012084F83C004FF0E0
:1031D0000008C4F84080212084F83D00FEF7F6FD89
:1031E000A6848146E684A068B0F5805F03D004E041
:1031F0000120BDE8F883206928B12E465FF0000564
:1032000084F83C800EE00026FAE78021204602F098
:103210008FF9A0B9AEB116F8010B21684860E08CB7
:10322000401EE084E08C4B464FF0000200970028DF
:10323000EBD14FF04001204602F07AF930B1032083
:10324000D7E735F8020BC0F30800E6E7202084F842
:103250003D000020CDE70220CBE770477047FEE736
:103260002DE9F0470446806861684FF00908807ACC
:103270000871A06803210025C07A4FF4007201EBA9
:10328000400061684871A068C07A4006060E606818
:103290000672A06801894FBAC17A08EB410015494E
:1032A00000F0FF09A1F58860FDF72EF8A7B1042111
:1032B00011A01AE030F81530676801EB450C1B0AC5
:1032C00007F80C3010F8153002EB450C67686D1CE0
:1032D000EDB207F80C3002E0094841460A22761E9A
:1032E000F6B2E7D20748494640680EF09FFF00203B
:1032F000BDE8F087A4FF00204141414100000000EB
:1033000064FB0020E005002010B5FCF7A3FF0028B7
:1033100000D0012010BD000010B5084C064A226004
:10332000C4E901012046FEF757FD00B1FEE7216820
:103330004CF6CC40086010BD0030004068360120DB
:103340002DE9F041816843680022897A197181680A
:103350000323C97A03EB4101436859718168C97A33
:1033600049060B0E416809250B7281680C89C97AE0
:1033700064BA05EB4101C9B2A4B1042110A019E05F
:1033800034F81260476805EB420C360A07F80C6007
:1033900014F812600EEB420C4768521CD2B207F8C8
:1033A0000C6002E0084C4FF00A0E5B1EDBB2E7D265
:1033B000064840680EF03AFF0020BDE8F0810000AA
:1033C0004141414100000000E0010020E0050020F3
:1033D00010B5FEF7FBFC1E4C216901F5FA7188421D
:1033E00006D9FEF7F3FC206120211A48FEF7E1FC24
:1033F000002001F0CFF928B9D4E9021263686069AE
:1034000000F056FF012001F0C5F930B10020207016
:10341000022001F0BFF910B106E00120F7E74FF4F8
:10342000FA40606102202070032001F0B3F908B96E
:1034300009486061042001F0ADF9002806D1D4E903
:1034400002126368BDE8104000F022BF10BD00000A
:10345000E4060020001002400083FFFF10B517486B
:10346000FFF702F900234FF4E1320321184602F07E
:10347000C5FE02F02DFD124806F00FFD114C104A5A
:1034800000212061903A104806F002FE0C4A2060AC
:103490006C3A00210D4806F0FBFD094A6060483A8D
:1034A00000210B4806F0F4FD054AA060243A0021F3
:1034B000084806F0EDFDE06010BD0000303401204A
:1034C000C440010800000020154700082D470008EF
:1034D000454700083D470008FEB54A4CC023A820D8
:1034E000237060704621A170A622E270251DFF2284
:1034F0002A706A70FE22AA7000272E1DEF703370AA
:103500007070B170F270394638460EF05FFA20687C
:10351000E17803BA0A0603F47F4342EA032203BABE
:1035200000BA03F47F03084342EA1322A4F10C011A
:1035300042EA106008602868E97803BA0A0603F4D2
:103540007F4342EA032203BA00BA03F47F0308432D
:1035500042EA1322A4F1080142EA106008603068D0
:10356000F17803BA0A0603F47F4342EA032203BA5E
:1035700003F47F0300BA42EA1322084342EA1060D0
:10358000211F231F0860204820490097CDE9011022
:103590001A1F111F1E4805F0E7FF1D4806F004FA28
:1035A0001B4C94F831004007204602D506F01CFB66
:1035B00001E006F0FFF91749154806F05BFA012112
:1035C0000022084606F0ECFC0E49103908601C3158
:1035D000C1E900400E4824213830FCF7BCFE0C48FD
:1035E0000DA13830024601604FF480614161102125
:1035F000816103B00349BDE8F0400C31084806F092
:1036000047BD0000280000209D1B010871750008BF
:103610002C3A0020957600084C696E6B5468720055
:103620005176000810B500F0B5F8BDE8104000F084
:1036300099B810B501F0A4F80121084601F0C8F8C6
:103640000021BDE81040084601F0C2B810B5FFF7F0
:10365000BFFE00F075FABDE8104000F00DBB0000A1
:1036600010B5FFF7E6FF00F0A5F800F036F800F01F
:103670009FF800F078F84FF4FA70FDF7B5FDBDE85B
:10368000104001A002F0CEB92D2D2D2D2D2D2D2D68
:103690002D2D2D2D2D2D2D2D2D2D2D2D2D2D2DB3D4
:1036A000F5CABCBBAFCDEAB3C92D2D2D2D2D2D2DC7
:1036B0002D2D2D2D2D2D2D2D2D2D2D2D2D2D2D2D3A
:1036C0002D0A0D0010B5FFF7C1FF00F084F800F0DF
:1036D00007F8BDE8104000F04BB800F08FBF0000C5
:1036E00070B500F0CFF8FDF757FB124D124CB5F84E
:1036F0008E0090B161880822012002F089F9608073
:103700000E4801680EA002F08DF91148016911A060
:1037100002F088F90020A5F88E00B5F88C006188C9
:1037200010B10522012001E00222002002F070F910
:10373000608070BDA4FF0020C82101202C0900205A
:10374000B5B1C7B0D6B5A3BA2564090A0000000018
:10375000FC060020C9E8D6C3D6B5A3BA2564090A79
:1037600000000000704740F271210420FFF7D4BD33
:1037700010B5FDF73DFB0D223221054800F0C2FCDB
:103780003222BDE810400021014800F02BB80000B3
:10379000A4FF002010B50448FDF7A6F8BDE81040CE
:1037A0000248FDF7A7B800008B5000088D500008B4
:1037B000FDF77DB810B54FF4E13421460020FDF748
:1037C0009FF821460120FDF79BF82146BDE81040F7
:1037D0000220FDF795B810B500F0E0FABDE8104002
:1037E00000F0C4BB30B515460A46044629461046CB
:1037F00000F00AF804E000BF30F8021B24F8021BB6
:103800006D1EADB2F8D230BD70B504460A480B4DFE
:1038100000F1C80600222B8806EB440406E000BF36
:1038200034F8123020F81230521CD2B2491E89B23C
:10383000F6D22B8070BD000000210120100700206F
:10384000F8B54FF0FF350C4E00952C4670680068B7
:103850000168890601D54068C4B20094641C06D092
:10386000054801226946083000F070FAEDE7034888
:1038700000688047F8BD0000BC0600202806002034
:10388000FEE700002DE9F041354C364D2646D4F8D0
:103890007A0000234FEA3040286136F8702FB4F8E0
:1038A0006EC0B6F80480F1882F4F3689BCF1010F45
:1038B0000CD0BCF1020F14D0BCF1030F38D0BCF116
:1038C000000F4AD1B4F86C00F0B325E0012A44D1CE
:1038D000A7F870300A463346C821404600F09EFCE7
:1038E00016E0012A08D1214AA7F870301268AA60B0
:1038F0004346324600F0DCFC022123E003226188CB
:10390000012002E061880322002002F081F860803B
:10391000B4F86E00002820D1B4F87830B4F87620DE
:10392000B4F8721094F86C00BDE8F04100F014BCDB
:10393000012A06D1A7F87030AA604346324600F04B
:10394000A7FC0321286900E004E000F0E3F9002867
:10395000D8D0D3E700F04CFED4E7BDE8F0810000FA
:10396000C8210120FC060020A4FF00202C09002013
:103970002DE9F04181684368002209791971436893
:1039800006214026597181684368DFF880C0097AB2
:10399000197281684368497A597281684368897AE3
:1039A000997281684368C97AD97281684B894D7B65
:1039B0005FBA0B8916495CBAE308012F05D0022FC4
:1039C00015D9F4B1042113A00FE004F0070025B1CC
:1039D0008540C85C0543CD5404E0CA5C01248440A2
:1039E000A243CA540C21DCF804000EF01FFC002096
:1039F000BDE8F081846802F10D03E35C8B54521C36
:103A0000D2B2761EB6B2F5D2ECE70000E005002097
:103A100064FF0020414141410000000010B5816871
:103A200042680979117142680621517181684268C2
:103A3000097A117281684268497A517281684268D4
:103A4000897A917281684268C97AD1728168074A1D
:103A50000889498940BA49BA22F8101004480C2153
:103A600040680EF0E3FB002010BD0000A4FF002022
:103A7000E00500202DE9F0418268436800211279B9
:103A80001A7143680622DFF8A4C05A71826843683D
:103A9000274D127A1A7282684368527A5A72826883
:103AA0004368927A9A7282684368D27ADA72876837
:103AB0004FF400737A8956BA3A89012E54BAF2B299
:103AC00008D00D27022E18D01FD95CB34FF0040187
:103AD00018A018E0B7F80D0040BA25F814000FE060
:103AE000836807EB4106334404EB01061B8801F1B0
:103AF00001015BBA25F81630C9B2521ED2B2EFD21C
:103B00000C21DCF804000EF091FB0020BDE8F081F0
:103B1000826807EB41042244128852BA25F811202A
:103B2000491CC9B25B1E9BB2F2D2E9E7E005002056
:103B3000A4FF00204141414100000000FEE70000D9
:103B400070B5052000F026FE4A4C00284FF0000218
:103B5000618878D05FF0000001F05AFF6080062095
:103B600000F018FE072000F015FE618800284FF0D5
:103B700002026AD05FF0000001F04AFF6080082076
:103B800000F008FE618800284FF004025FD000209A
:103B900001F03EFF6080092000F0FCFD61880028F4
:103BA0004FF0010255D0002001F032FF60800A2062
:103BB00000F0F0FD01250026E8B3E6800B2000F0C0
:103BC000E9FD21894FF00002B0B3002001F020FF91
:103BD00020810C2000F0DEFD21894FF0020268B345
:103BE0005FF0000001F014FF20810D2000F0D2FDF5
:103BF00021894FF0010270B35FF0000001F008FF6F
:103C000020810E2000F0C6FD21894FF0030258B339
:103C10005FF0000001F0FCFE20810F2000F0BAFDF3
:103C200020B3A680102000F0B5FD61894FF000029E
:103C3000F0B1002003E00FE010E004E010E001F03C
:103C4000E7FE608170BD012086E7012094E7012036
:103C50009EE70120A8E705E0E580AFE70120B5E792
:103C60000120BFE70120C9E70120D3E7A580D9E7FC
:103C70000120DFE7C821012070B5244D244CB5F8A0
:103C80006A0038B10021032000F0A2FD0320A4F84F
:103C9000900003E00121032000F09AFDB5F86400D4
:103CA000012100F051FA38B10021042000F090FD0C
:103CB0000420A4F8900003E00121042000F088FD16
:103CC000B5F86400022100F03FFA38B10021052068
:103CD00000F07EFD0520A4F8900003E001210520FE
:103CE00000F076FDB5F86400002100F02DFA38B13F
:103CF0000021062000F06CFD0620A4F8900070BDA5
:103D0000BDE870400121062000F062BDC8210120FD
:103D1000A4FF002010B5024600200A4B0A4C0229DD
:103D200008D0032905D1A168002902D019688A4268
:103D300005D010BD1968A368C91A9142F9D10120B4
:103D400010BD00002C090020FC060020F0B5502317
:103D500083F31188BFF34F8FBFF36F8F4FF48474D9
:103D6000002315E00D7887880668F55585886D1C59
:103D700085808588A54200D983808588C688B5421C
:103D800006D1C5886D1CC580C588A54200D9C380F1
:103D9000521EE7D2002080F31188F0BD70B5714D3E
:103DA0000021287800F0D0F96F4C4FF001026189B2
:103DB00008B1012000E0002001F02AFE608128788F
:103DC000012100F0C1F961894FF0020208B1012020
:103DD00000E0002001F01CFE60812878022100F044
:103DE000B3F961894FF0030208B1012000E000201F
:103DF00001F00EFE60812878032100F0A5F9A18969
:103E00004FF0000208B1012000E0002001F000FEA8
:103E1000A0812878042100F097F9A1894FF00102D0
:103E200008B1012000E0002001F0F2FDA081287817
:103E3000052100F089F9A1894FF0030208B10120A2
:103E400000E0002001F0E4FDA0812878062100F0C8
:103E50007BF9A1894FF0020208B1012000E00020A7
:103E600001F0D6FDA0812878072100F06DF9A18925
:103E70004FF0060208B1012000E0002001F0C8FD6B
:103E8000A0816878002100F05FF9A1894FF0050258
:103E900008B1012000E0002001F0BAFDA08168789F
:103EA000012100F051F9A1894FF0040208B101206D
:103EB00000E0002001F0ACFDA0816878022100F054
:103EC00043F9E1894FF0030208B1012000E000202E
:103ED00001F09EFDE0816878032100F035F9E18969
:103EE0004FF0020208B1012000E0002001F090FD37
:103EF000E0816878042100F027F9E1894FF00102A0
:103F000008B1012000E0002001F082FDE081687826
:103F1000052100F019F9E1894FF0000208B10120F4
:103F200000E0002001F074FDE0816878062100F0D7
:103F30000BF9E1894FF0040208B1012000E00020F4
:103F400001F066FDE0816878072100F0FDF8E18965
:103F50004FF0050208B1012000E0002001F058FDFB
:103F6000E08170BDCA060120C821012070B5634DF3
:103F70000321B5F8640000F0E7F8614C4FF000024F
:103F8000217808B1012000E0002001F041FD2070FF
:103F9000B5F86600052100F0D7F821784FF001024E
:103FA00008B1012000E0002001F032FD2070B5F8DA
:103FB0006600042100F0C8F821784FF0020208B131
:103FC000012000E0002001F023FD2070B5F866001C
:103FD000032100F0B9F821784FF0030208B1012065
:103FE00000E0002001F014FD2070B5F86600022109
:103FF00000F0AAF821784FF0040208B1012000E097
:10400000002001F005FD2070B5F86600012100F0E8
:104010009BF821784FF0050208B1012000E0002054
:1040200001F0F6FC2070B5F86600002100F08CF875
:1040300021784FF0060208B1012000E0002001F0D5
:10404000E7FC2070B5F86800052100F07DF82178C4
:104050004FF0070208B1012000E0002001F0D8FC79
:104060002070B5F86800042100F06EF861784FF018
:10407000000208B1012000E0002001F0C9FC6070DE
:10408000B5F86800032100F05FF861784FF0010295
:1040900008B1012000E0002001F0BAFC6070B5F822
:1040A0006800022100F050F861784FF0020208B178
:1040B000012000E0002001F0ABFC6070B5F8680062
:1040C000012100F041F861784FF0030208B10120AE
:1040D00000E0002001F09CFC6070B5F86800002151
:1040E00000F032F861784FF0040208B1012000E0DE
:1040F000002001F08DFC607070BD0000C82101201F
:10410000CA20012010B5084C00EB4100002304EB4D
:10411000410105E030F8134021F813405B1CDBB28D
:10412000521ED2B2F6D210BDC821012010B54FF4F4
:10413000FA7314220021012002F0C4FA0149087028
:1041400010BD0000E006002001228A40024201D09A
:1041500001207047002070472DE9F04791460E4638
:10416000002101252A4A2B4C9846012802D002281A
:1041700015D027E0A079284F02280CD060790028BC
:1041800007D1334642464946384600F091F86571FA
:10419000A571BDE8F087A07902282FD012E0A079A0
:1041A0001D4F7F4201280AD060790028F1D13346A3
:1041B00042464946384600F07BF8657107E0A07931
:1041C000012806D060790128E3D111706171A079CE
:1041D000DFE76079012801D1117061710A20FDF7D4
:1041E00003F860790028D4D1334642464946384620
:1041F00000F05EF865710220A071CAE760790128BD
:1042000001D1117061710A20FCF7EEFFB6E70000E2
:10421000983501202009002000A861002DE9FF5FEA
:104220006420DFF85CA0DFF85CB0174C984691463C
:1042300003FB00F5002602FB00F7207828B92A4688
:1042400049465846009B00F033F8E07801280FD12A
:104250006420FCF7C9FF01215046FDF7A5FD38B9E0
:104260002671394642465846019B00F021F8E67017
:1042700020790128E1D105480670E660BDE8FF9F7E
:104280000018024000589EFF2009002098350120A8
:1042900030B4064D4FF0FF34ED682D1A00D10024E4
:1042A00004FB05F030BC00F003B80000200900203A
:1042B0002DE9F05F744C9B462DED048B90460F4624
:1042C00006004FF000054FF0010A08D584F801A060
:1042D000002208216D48FDF774FD764205E0657007
:1042E000012208216948FDF76CFD6078DFF8A09194
:1042F0000128484674D04178012977D085704570EF
:10430000012E79D0002E6AD0624801680620B1FBE8
:10431000F0F000EE100AB8EE400ADFED5F0A60EE42
:10432000200A00EE10BAB8EE400A80EE801ABDEE08
:10433000C10A84ED040A00EE107AF8EE400A9FEDFF
:10434000571A81EE200A10EE100AFCF729F941EC09
:10435000100B01F087FB4F48B0EE409AF0EE609AE8
:1043600001680620B1FBF0F0FCF7EEF89FED4C1B66
:1043700053EC112BFCF707F89FED4B8B53EC182BEC
:10438000FCF773F8FCF71FF9FCF70AF953EC192B4B
:10439000FBF7F9FF53EC182BFCF767F8FCF7E1F893
:1043A00000EE107A0246B8EE400ADFED410AB2EEA6
:1043B000041A606020EE200A0BFB0BF0C0EE010A2D
:1043C00000EE100AB8EE400A80EE201ABCEEC10AD8
:1043D00010EE100AC8B119E002E007E00CE036E088
:1043E0008178012902D04570857089E725700570B4
:1043F000BDEC048BBDE8F09F4FF0FF306061022000
:1044000020704FF47A70606021E0012006FB08F113
:1044100007EB0803B1FBF3F101B90121814201D897
:10442000881B03E07843B0FBF8F04042E06010B92D
:104430004FF0FF30E0603044A0602069824203DC2E
:1044400060600320207001E084F800A0656189F8B5
:1044500000A00D4D1C352868416A626812FA81F18E
:10446000416301220021134800F0D4FC2868C16890
:1044700041F00201C1600022BDEC048B8021BDE847
:10448000F05F0248FDF79DBC98350120000C02400A
:10449000200900204800002072D9203C7059444374
:1044A0006F1283C0CAA1E53F000000000000244055
:1044B000CF0F493E000401402DE9F041484886B045
:1044C0000026016841F480710160016801F4807187
:1044D0000591016841F008010160016801F00801DF
:1044E0000591016841F008010160016801F00801CF
:1044F0000591016841F040010160016801F040014F
:104500000591016841F0400101600068022400F05B
:10451000400005902020CDE900040320CDE90340B0
:1045200069463048FDF748FB08200125CDE9000524
:104530002D4FCDE9034669463846FDF73DFB802007
:10454000CDE90005CDE9034669463846FDF734FB61
:10455000012208213846FDF734FC0122802138462B
:10456000FDF72FFC4FF40417CDE90047DFF87C80FE
:10457000CDE90254694640460496FDF71DFB042030
:10458000CDE90007CDE90254694604964046FDF79F
:1045900013FB4FF44410CDE90050CDE902546946B5
:1045A00040460496FDF708FB012200210720FDF795
:1045B000CDFC0720FDF7BCFC012200210820FDF7FF
:1045C000C5FC0820FDF7B4FC012200210620FDF700
:1045D000BDFC0620FDF7ACFC06B0BDE8F081000094
:1045E0003038024000200240000C02400018024017
:1045F000014900200870704798350120F0B5264821
:104600008DB00025016841F002010160006800F0F2
:1046100002000B90FFF750FF214C204E052040C4B4
:104620004FF6FF77A1C41E4844F81059FDF7D2FF9A
:10463000B014079007A91A48FEF792F83020CDE988
:104640000007022002900820CDE90305059500220D
:10465000694613480695FEF7EFF9002211463046E9
:1046600000F0D8FB002211462E20FDF76FFC2E2013
:10467000FDF75EFC2168E81E08612068C16821F032
:104680000201C1600648FDF7EFFF2068416C41F46C
:10469000004141640DB0F0BD4438024000040140C7
:1046A000B435012010B581684268097911714268FA
:1046B0000621517181684268097A117281684268E5
:1046C000497A517281684268897A91728168426838
:1046D000C97AD172816808898C7A40BAC20800F020
:1046E00007030A4901202CB198408B5C18432040F5
:1046F000885403E08C5C984084438C5404480C211B
:1047000040680DF093FD002010BD000064FF002004
:10471000E0050020FEF7E0FE40F23E400BF0F6FE22
:104720000DF0ACFB012005F0BBFAF9E7FEF77AFFCC
:10473000FEF7C8FF012005F0B3FAF9E701F098FD94
:10474000FCE700000D4C4FF0FF354FF4FA76294698
:10475000206905F079FB01F04DF92946206905F043
:1047600073FBFFF7E3FC206905F0CBFB206905F044
:10477000C8FB304605F094FAE9E70000000000208D
:1047800010B507F0A3F907F0C7F9BDE81040FCF732
:10479000E3BA000010B511280FD20C4900EB8000DD
:1047A00001EB8000017841B1017C0029018940685A
:1047B00089B204D0FDF7F8FA28B1002010BDBDE899
:1047C0001040FDF7F1BA012010BD0000B80700202D
:1047D000082817D20C4A00EB800002EB8000027818
:1047E000002A0FD0027C0AB109B105E021B101898C
:1047F000406889B2012203E00189406889B2002241
:10480000FDF7DFBA704700001807002010B54FF021
:10481000E02000690FF0E6F9012803D0BDE8104060
:104820000EF002BD10BD000030B593B030216846D7
:10483000FBF791FD14210CA8FBF78DFD1F48002507
:10484000016841F080510160006800F080501190D3
:104850001B48016841F4804101600068022400F4B3
:1048600080401190092000904FF480300190012089
:10487000CDE9050480050790082008904FF4A87042
:10488000CDE9090404200B906846FDF7A1FC08B1AE
:1048900072B6FEE70CA90F2081E831004FF4A0505A
:1048A0000F904FF48050109005210CA8FDF780FB6D
:1048B000002801D072B6FEE713B030BD4038024088
:1048C000007000400248016841F4700101607047C7
:1048D00088ED00E00148FDF7B4BF00006031012021
:1048E0000148FDF7AEBF00001432012010B5204A88
:1048F00088B00024136843F0010313601268009429
:1049000002F001020194029403940494CDE905425B
:10491000184A4FF080431360C2E90104802090617F
:10492000C2E903141046FDF755FE00B1FEE74FF44F
:104930008050009069460F48FDF712FF00B1FEE776
:104940002020CDE9040404A90A48FDF7FBFD00B1CD
:10495000FEE7002201211C20FDF7F8FA1C20FDF7DC
:10496000E7FA0448FDF7BCFE08B0012010BD0000C6
:1049700040380240143201200148FDF762BF0000B8
:10498000C832012070B5054624480E468AB0016839
:10499000002441F00201016000681C2100F00200C7
:1049A000CDE9084007946846FBF7D5FC1D4A1C4832
:1049B000C2E9024514619461C2E900061046FEF79F
:1049C000CBF800B1FEE7079407A916480894FDF755
:1049D000B9FD00B1FEE76020009068080190022058
:1049E00002900422694604940E48FEF74FF800B185
:1049F000FEE7002202211D20FDF7A8FA1D20FDF789
:104A000097FA0848FDF7DCFF0648FDF769FE042128
:104A10000448FEF7DBF80AB0012070BD40380240C0
:104A200000040040C83201200148FDF70ABF000021
:104A30007C33012010B5224A88B00024136843F06B
:104A4000040313601268009402F0040201940294BB
:104A500003940494CDE905421B4A1A4B1360C2E942
:104A6000010480209061C2E903141046FDF7B2FDF5
:104A700000B1FEE74FF48050009069461248FDF700
:104A80006FFE00B1FEE7049404A90F480594FDF7FA
:104A900059FD00B1FEE70C48FDF722FE0A48FDF77C
:104AA000E3FD002202211E20FDF750FA1E20FDF733
:104AB0003FFA0548FDF784FF08B0012010BD000053
:104AC00040380240000800407C33012070B50546A4
:104AD0001D480E468AB00168002441F010010160B3
:104AE0000068009400F010000194CDE9074007A988
:104AF00002A8FDF7F7FA0598A0B1FDF719FB4000F1
:104B0000B0FBF5F0124A1149401E9460C2E9001052
:104B1000B5FBF6F0D060802090611046FDF75AFD9D
:104B200018B1FEE7FDF704FBEAE700946946084880
:104B30000194FDF707FD00B1FEE70548FDF7D0FD44
:104B40000AB0012070BD0000403802400010004053
:104B5000303401200148FDF774BE0000E434012028
:104B60003EB5174A0024136843F02003136012680F
:104B7000009402F02002CDE90142134A114BC2E930
:104B8000003080209061C2E902411046FDF722FD0D
:104B900000B1FEE7009469460B480194FDF7D2FC92
:104BA00000B1FEE7002205213720FDF7CFF93720BD
:104BB000FDF7BEF90448FDF793FD01203EBD00005E
:104BC0004038024000140040E43401202DE9F04751
:104BD0005A4900250868C268D243920770D46FF022
:104BE00002090F46C0F810900868426AA1F11C043F
:104BF00061680A4492B24263DFF8448198F8070082
:104C0000401CC0B288F80700022859D1002688F855
:104C10000760237863B147468446D7E90407012239
:104C2000401C012B1DD0022B64D0032B18D148E06F
:104C3000C8F81060002211464248C8F8146000F01D
:104C4000E9F83A68C2F810903868C16821F00201AA
:104C5000C160012280213C48FDF7B3F888F800606C
:104C600066E0C8F810006378002BD8F80C301AD032
:104C7000B3F10103C8F80C30636907EB41075B1C13
:104C800002EB8302636197FBF2F3C91A8DB297FBC3
:104C9000F2F102FB1171C8F81410A168814204D826
:104CA000E068606121E05B1CE4E72069A8423FDB2B
:104CB000A8F8085085B20320C8F81460207037E0C7
:104CC00037E0C8F8100061780029D8F80C100FD030
:104CD000B1F10101C8F80C10218A8DB2A16881429E
:104CE00026D8E0686061B8F8085084F800C01FE07A
:104CF000491CEFE7C8F8100060780028D8F80C00CD
:104D000019D0401EC8F80C00606907EB4103401C35
:104D100002EB800293FBF2F5A1EB05018DB293FB50
:104D2000F2F102FB11316061C8F8141000D4267052
:104D30006560BDE8F087401CE4E70000B435012061
:104D40002009002000040140000C0240F0B5026878
:104D5000254C264D264E274F274B4FF0804CA04226
:104D600009D0604507D0A84205D0B04203D0B84270
:104D700001D0984204D122F0700E4A6842EA0E0235
:104D8000A0421BD0604519D0A84217D0B04215D020
:104D9000B84213D0984211D0184DA8420ED0184DE9
:104DA000A8420BD0174DA84208D0174DA84205D0F5
:104DB000164DA84202D0164DA84203D122F44075E8
:104DC000CA682A434D6922F080022A4302608A6839
:104DD000C2620A688262A04201D0984201D1096988
:104DE000016301214161F0BD000001400004004069
:104DF00000080040000C0040000401400040014059
:104E0000004401400048014000180040001C0040E0
:104E10000020004010B501F01F030121046A9940F1
:104E20008C430462016A9A401143016210BD10B5BF
:104E3000846842EA032224F47F440A4322438260C6
:104E400010BD826822F070020A4342F007018160BF
:104E500070470000F0B5026A22F001020262036AA4
:104E600042688469124E24F073050C682C4323F0C9
:104E700002058B682B430D4DA84201D0B04205D1ED
:104E800023F00807CB683B4323F00403A84201D07A
:104E9000B04205D14D6922F4407215438A692A4314
:104EA00042608461496841630362F0BD00000140D3
:104EB00000040140F0B5026A22F010020262026AA8
:104EC000436884690D6824F4E64444EA05248D6847
:104ED00022F0200242EA05120F4D104EA84201D0E6
:104EE000B04206D1CF6822F0800242EA071222F0D7
:104EF0004002A84201D0B04207D14D6923F440637B
:104F000043EA85038D6943EA850343608461496808
:104F100081630262F0BD0000000001400004014016
:104F2000F0B5026A22F480720262026A4368C469C0
:104F300022F4007224F073050C68124E2C438D6825
:104F400042EA05220E4DA84201D0B04206D1CF68F8
:104F500022F4006242EA072222F48062A84201D0D1
:104F6000B04207D14D6923F4405343EA05138D69DC
:104F700043EA05134360C4614968C1630262F0BD3E
:104F8000000001400004014030B5026A22F4805262
:104F90000262046A4268C3690D6823F4E64343EA87
:104FA00005238D6824F4005444EA0534084DA842D2
:104FB00002D0084DA84204D14D6922F4804242EA51
:104FC00085124260C36149680164046230BD00001B
:104FD00000000140000401400D4940F8801F0D49C8
:104FE00041600D4981600D49C1600D4901610D4964
:104FF00041610D4981610D49C1610D4901620D4950
:1050000041620D4981620D49C1620D4901637047DA
:10501000952C0008FD2C0008FF2C0008012D00082D
:105020003F280008412800088B2A0008C72B0008E9
:10503000C92B00083D2800083F250008412500082D
:105040003D25000810B5036A046A24F001040462D7
:10505000846924F0F00444EA021423F00A020A43AB
:105060008461026210BD10B5036A23F0100303626D
:105070008369046A23F4704343EA023224F0A003F4
:1050800043EA01118261016210BD70470A4A10B5FE
:1050900010884FF47A74401C80B21080A04209D16D
:1050A000064800230188A14202D8491C018000E083
:1050B0000380138010BD000012070020C8210120CA
:1050C0000148FDF7B9BE00006C230120806B002170
:1050D000C185C184416D084770B5846B2068406903
:1050E00094F83D10C0F3C0100025212904D118B157
:1050F000E584204600F0B9F82068406994F83E1035
:10510000C0F38010222904D118B1E585204600F0B3
:1051100085F8206C40F0100020642046616DBDE8E9
:10512000704008470146806B09680968C9052FD49B
:105130000021C18501680C3151E8002F22F48072F2
:1051400041E80023002BF5D10168143151E8002F0C
:1051500022F0010241E80023002BF5D1016814314F
:1051600051E8002F22F0400241E80023002BF5D146
:10517000202180F83E10016B012909D101680C3112
:1051800051E8002F22F0100241E80023002BF5D156
:10519000016B012901D0016D0847826E818D104796
:1051A000806B016B012901D0C16C0847818D826E33
:1051B0004908104770B50D461449144688420CD171
:1051C0001348FDF700FE124800684068A2B2294665
:1051D0000F48FDF796FD0F4812E00F49884214D1A1
:1051E0000C487438FDF7EFFD0A48743800684068D1
:1051F0000848A2B229467438FDF783FD0548C0303F
:105200000068016821F00801016070BD00100140D4
:1052100084220120E02301200050004001680C316D
:1052200051E8002F22F4907241E80023002BF5D1C1
:105230000168143151E8002F22F0010241E80023F7
:10524000002BF5D1016B012909D101680C3151E81E
:10525000002F22F0100241E80023002BF5D120217D
:1052600080F83E1000210163704701680C3151E85D
:10527000002F22F0C00241E80023002BF5D12021AD
:1052800080F83D1070470000094941640949816474
:105290000949C164094901650949416509498165AF
:1052A0000949C165094901660949816670470000DD
:1052B0005D3200085B320008A7310008A531000804
:1052C000372E0008C12D0008C52D0008C32D000889
:1052D000592D000808B590F83E10222901D002206F
:1052E00008BD82684FF480539A4201D1016921B10F
:1052F000816A9A421BD04AB10AE00268816A526808
:10530000C2F308020A80816A891C08E0026972B14E
:105310000268526802F07F020A70816A491C816249
:10532000C18D491E0904090CC18503D019E002682A
:105330005268F1E70168CA6822F02002CA60016879
:10534000CA6822F48072CA6001684A6922F00102C8
:105350004A61202180F83E10016B012903D0016DC4
:105360008847002008BD0021016301680C3151E825
:10537000002F22F0100241E80023002BF5D1016834
:105380000A68D20602D50A6849680091826E818D4A
:105390009047E6E770B5044600680169E26821F4C9
:1053A0004051114301612169A068E26908436169C4
:1053B000114308432168CA6849F20C639A430243C7
:1053C000CA6020684169A26921F4407111434161BA
:1053D00031492068884202D03049884202D1FCF726
:1053E000B7FE01E0FCF7A4FEE26900231921642561
:1053F0003226B2F5004F626828D0A0FB0101930F5E
:105400009200FAF73DFF0146B0FBF5F06FF018028D
:10541000504301EB800006EB0010B0FBF5F000F00C
:10542000F002B1FBF5F002EB0012B1FBF5F06FF00A
:105430001803584301EB800006EB0010B0FBF5F0B9
:1054400000F00F0021681044886070BDA0FB0101CE
:1054500092185B41FAF714FF0146B0FBF5F0020128
:10546000B1FBF5F06FF01803584301EB800006EB39
:10547000C000B0FBF5F000F0F80002EB4002B1FB19
:10548000F5F0584301EB800006EBC000B0FBF5F0EF
:1054900000F00700D6E700000010014000140140B2
:1054A00038B58162828500251346044605642220B2
:1054B00084F83E00A26B1B48D063A26B1A481064AC
:1054C000A26B1A48D064A06B0A4605652168A06BE0
:1054D000091DFBF751FE206801684068009084F8C0
:1054E0003C5020680C3050E8001F41F4807140E8C7
:1054F0000012002AF5D12068143050E8001F41F056
:10550000010140E80012002AF5D12068143050E86B
:10551000001F41F0400140E80012002AF5D10020B0
:1055200038BD000025510008A1510008D9500008DD
:105530002DE9F041984617460E460446069D27E0A1
:10554000681C25D02DB1FCF741FCA0EB0800A84257
:105550001ED920680C3050E8001F21F4D07140E8BB
:105560000012002AF5D12068143050E8001F21F005
:10557000010140E80012002AF5D1202084F83D0006
:1055800084F83E00002084F83C000320BDE8F08150
:105590002068006836EA000004D00020B842CFD06E
:1055A0000020F3E70120F9E70148FDF745BC0000C2
:1055B000842201202DE9F04786B0804614216846F8
:1055C000FAF7C9FE57480024016841F480010160E0
:1055D000016801F480010591524914310A6842F0D2
:1055E00010020A60096801F010010591016841F09C
:1055F00002010160016801F002010591016841F0BA
:105600000201016000684FF040090225CDF80090CA
:10561000CDE9015400F002000726CDE90460424FB5
:10562000694603953846FCF7C7FA8020009002AA25
:10563000694682E870003846FCF7BEFA3C4DDFF858
:10564000ECA00C20C5F800A0C5E90184EC60C5E918
:105650000440AC612846EC61FDF722FD08B1FBF780
:10566000C3FB354E33484FF000683060C6E9018413
:105670000715C6E903477461F801B461C6E907403C
:1056800030467462FBF70EFD08B1FBF7ADFBAE636D
:10569000002205213A20B563FCF758FC3A20FCF7BC
:1056A00047FC254E234860367830C6E903477461CD
:1056B000B46186E801034FF48030C6E90740304604
:1056C0007462FBF7EFFC08B1FBF78EFB6E63002200
:1056D00005214620B563FCF739FC4620FCF728FC81
:1056E000002205212520FCF731FC2520FCF720FCB9
:1056F0001249A1F5467001604FF40071416000F558
:10570000A3618160C46004742968CA6842F0100211
:10571000CA60426801685046FFF74CFD06B00120A0
:10572000BDE8F0873038024000040240001001401C
:105730008422012040640240E023012060250120F2
:1057400038B50D4C20680068800606D5216D2046CE
:10575000884721686FF02000086020680168090709
:1057600003D541680168416800910168490602D586
:105770006FF04001016038BDF82201202DE9F043AF
:1057800087B0814614216846FAF7E5FD2F480024CA
:10579000016841F480210160006800F480200590D8
:1057A0002A481038016841F002010160016801F0E7
:1057B00002010591016841F00201016000680225C3
:1057C00000F0020005904FF48060CDE9000502AAC8
:1057D00003260727DFF8788082E8D0006946404634
:1057E000FCF7EAF9A802CDE9000502AA694682E8B9
:1057F000D0004046FCF7E0F9174816490160C0E9BF
:1058000001940C21C460C0E904418461C461FDF7C6
:1058100047FC08B1FBF7E8FA002205212720FCF736
:1058200095FB2720FCF784FB0C49A1F5E36041615F
:105830004FF40071816100F61811C161046280F8B3
:10584000244007B00120BDE8F0830000403802404A
:105850000004024000480040F82201206029012095
:105860002DE9F04387B0804614216846FAF773FDAE
:1058700057480024016841F400110160016801F4F7
:1058800000110591524910310A6842F480120A60F1
:10589000096801F480110591016841F0040101607B
:1058A000016801F004010591016841F008010160FF
:1058B0000068022500F0080005904FF48050CDE903
:1058C000000502AA0326082782E8D000694641485D
:1058D000FCF772F90420CDE9000502AA694682E8C6
:1058E000D0003D48FCF768F93D4DDFF8F0900C2002
:1058F000C5F80090C5E90184EC60C5E90440AC61DD
:105900002846EC61FDF7CCFB00B1FEE7364E35488A
:105910004FF48068C7053060C6E90174C6E90348E2
:105920007461B461F461346230467462FBF7BAFBAF
:1059300008B1FBF759FAAE63002205210B20B563CD
:10594000FCF704FB0B20FCF7F3FA274E25486036E2
:10595000A830E6E802074020A6E81101224846F8F0
:1059600014496030B461F46134627462FBF79AFBED
:1059700008B1FBF739FA6E63002205212F20B563C9
:10598000FCF7E4FA2F20FCF7D3FA0022052135209A
:10599000FCF7DCFA3520FCF7CBFA1449A1F61830F5
:1059A00081624FF40071C16200F6185101634463D3
:1059B00080F838402968CA6842F01002CA60C26A9A
:1059C000816A4846FFF7F6FB07B00120BDE8F08387
:1059D0003038024000080240000C024000500040F5
:1059E0006C23012010600240A0240120602D0120C2
:1059F000FEE7000008B54FF4FA700090034B142244
:105A00000021012000F084FE08BD0000CA20012012
:105A10000123934010B10B4398B2704721EA030071
:105A2000704700000FB4054B10B503A9044A029853
:105A300000F06AF810BC5DF814FB00004577000820
:105A40003C0900200907090E002804DB00F1E020D2
:105A500080F80014704700F00F0000F1E02080F89B
:105A6000141D704700B52DED048BB0EE409AF0EE9A
:105A7000609A83B051EC190BFAF78AFE41EC180BCF
:105A800018EE100A18EE901A8DED008B002818BF42
:105A90000120084320F00040C0F17F6000F1E040A9
:105AA000C00F14D019EE101A19EE900A8DED009B5C
:105AB000002918BF0121084320F00040C0F17F6099
:105AC00000F1E040C00F04BF012000F017F8B0EE75
:105AD000480A03B0F0EE680ABDEC048B00BD02E09A
